:020000040000fa
:080000000002040000000000f2
:020000040000fa
:04000800fe050000f1
:020000040000fa
:04000c00fe050000ed
:020000040000fa
:04001000fe050000e9
:020000040000fa
:04001400fe050000e5
:020000040000fa
:04001800fe050000e1
:020000040000fa
:04001c00fe050000dd
:020000040000fa
:04002000fe050000d9
:020000040000fa
:04002400fe050000d5
:020000040000fa
:04002800fe050000d1
:020000040000fa
:04002c00fe050000cd
:020000040000fa
:04003000fe050000c9
:020000040000fa
:040034009403000031
:020000040000fa
:04003800fe050000c1
:020000040000fa
:04003c00fe050000bd
:020000040000fa
:04004000fe050000b9
:020000040000fa
:04004400fe050000b5
:020000040000fa
:04004800540500005b
:020000040000fa
:04004c00fe050000ad
:020000040000fa
:04005000fe050000a9
:020000040000fa
:04005400e4020000c2
:020000040000fa
:04005800fe050000a1
:020000040000fa
:04005c00fe0500009d
:020000040000fa
:04006000fe05000099
:020000040000fa
:04006400fe05000095
:020000040000fa
:04006800fe05000091
:020000040000fa
:04006c00fe0500008d
:020000040000fa
:04007000fe05000089
:020000040000fa
:04007400fe05000085
:020000040000fa
:04007800fe05000081
:020000040000fa
:04007c00fe0500007d
:020000040000fa
:04008000fe05000079
:020000040000fa
:04008400fe05000075
:020000040000fa
:04008800fe05000071
:020000040000fa
:04008c00fe0500006d
:020000040000fa
:04009000fe05000069
:020000040000fa
:04009400fe05000065
:020000040000fa
:04009800fe05000061
:020000040000fa
:04009c00fe0500005d
:020000040000fa
:0400a0003c0300001d
:020000040000fa
:0400a400fe05000055
:020000040000fa
:0400a800fe05000051
:020000040000fa
:0400ac00fe0500004d
:020000040000fa
:0400b000fe05000049
:020000040000fa
:0400b400fe05000045
:020000040000fa
:0400b800fe05000041
:020000040000fa
:0400bc00fe0500003d
:020000040000fa
:0400c000fe05000039
:020000040000fa
:0400c400fe05000035
:020000040000fa
:0400c800fe05000031
:020000040000fa
:0400cc00fe0500002d
:020000040000fa
:0400d000fe05000029
:020000040000fa
:0400d400fe05000025
:020000040000fa
:0400d800fe05000021
:020000040000fa
:0400dc00fe0500001d
:020000040000fa
:0400e000fe05000019
:020000040000fa
:0400e400fe05000015
:020000040000fa
:0400e800fe05000011
:020000040000fa
:0400ec00fe0500000d
:020000040000fa
:0400f000fe05000009
:020000040000fa
:0400f400fe05000005
:020000040000fa
:0400f800fe05000001
:020000040000fa
:0400fc00fe050000fd
:020000040000fa
:04010000fe050000f8
:020000040000fa
:04010400fe050000f4
:020000040000fa
:04010800fe050000f0
:020000040000fa
:04010c00fe050000ec
:020000040000fa
:04011000fe050000e8
:020000040000fa
:04011400fe050000e4
:020000040000fa
:04011800fe050000e0
:020000040000fa
:04011c00fe050000dc
:020000040000fa
:04012000fe050000d8
:020000040000fa
:04012400fe050000d4
:020000040000fa
:04012800fe050000d0
:020000040000fa
:04012c00fe050000cc
:020000040000fa
:04013000fe050000c8
:020000040000fa
:04013400fe050000c4
:020000040000fa
:04013800fe050000c0
:020000040000fa
:04013c00fe050000bc
:020000040000fa
:04020800fe050000ef
:020000040000fa
:04020c00fe050000eb
:020000040000fa
:04021000fe050000e7
:020000040000fa
:04021400fe050000e3
:020000040000fa
:04021800fe050000df
:020000040000fa
:04021c00fe050000db
:020000040000fa
:04022000fe050000d7
:020000040000fa
:04022400fe050000d3
:020000040000fa
:04022800fe050000cf
:020000040000fa
:04022c00fe050000cb
:020000040000fa
:04023000fe050000c7
:020000040000fa
:04023400940300002f
:020000040000fa
:04023800fe050000bf
:020000040000fa
:04023c00fe050000bb
:020000040000fa
:04024000fe050000b7
:020000040000fa
:04024400fe050000b3
:020000040000fa
:040248005405000059
:020000040000fa
:04024c00fe050000ab
:020000040000fa
:04025000fe050000a7
:020000040000fa
:04025400e4020000c0
:020000040000fa
:04025800fe0500009f
:020000040000fa
:04025c00fe0500009b
:020000040000fa
:04026000fe05000097
:020000040000fa
:04026400fe05000093
:020000040000fa
:04026800fe0500008f
:020000040000fa
:04026c00fe0500008b
:020000040000fa
:04027000fe05000087
:020000040000fa
:04027400fe05000083
:020000040000fa
:04027800fe0500007f
:020000040000fa
:04027c00fe0500007b
:020000040000fa
:04028000fe05000077
:020000040000fa
:04028400fe05000073
:020000040000fa
:04028800fe0500006f
:020000040000fa
:04028c00fe0500006b
:020000040000fa
:04029000fe05000067
:020000040000fa
:04029400fe05000063
:020000040000fa
:04029800fe0500005f
:020000040000fa
:04029c00fe0500005b
:020000040000fa
:0402a0003c0300001b
:020000040000fa
:0402a400fe05000053
:020000040000fa
:0402a800fe0500004f
:020000040000fa
:0402ac00fe0500004b
:020000040000fa
:0402b000fe05000047
:020000040000fa
:0402b400fe05000043
:020000040000fa
:0402b800fe0500003f
:020000040000fa
:0402bc00fe0500003b
:020000040000fa
:0402c000fe05000037
:020000040000fa
:0402c400fe05000033
:020000040000fa
:0402c800fe0500002f
:020000040000fa
:0402cc00fe0500002b
:020000040000fa
:0402d000fe05000027
:020000040000fa
:0402d400fe05000023
:020000040000fa
:0402d800fe0500001f
:020000040000fa
:0402dc00fe0500001b
:020000040000fa
:0402e000fe05000017
:020000040000fa
:0402e400fe05000013
:020000040000fa
:0402e800fe0500000f
:020000040000fa
:0402ec00fe0500000b
:020000040000fa
:0402f000fe05000007
:020000040000fa
:0402f400fe05000003
:020000040000fa
:0402f800fe050000ff
:020000040000fa
:0402fc00fe050000fb
:020000040000fa
:04030000fe050000f6
:020000040000fa
:04030400fe050000f2
:020000040000fa
:04030800fe050000ee
:020000040000fa
:04030c00fe050000ea
:020000040000fa
:04031000fe050000e6
:020000040000fa
:04031400fe050000e2
:020000040000fa
:04031800fe050000de
:020000040000fa
:04031c00fe050000da
:020000040000fa
:04032000fe050000d6
:020000040000fa
:04032400fe050000d2
:020000040000fa
:04032800fe050000ce
:020000040000fa
:04032c00fe050000ca
:020000040000fa
:04033000fe050000c6
:020000040000fa
:04033400fe050000c2
:020000040000fa
:04033800fe050000be
:020000040000fa
:04033c00fe050000ba
:020000040000fa
:10040000cfca20000e7f24000e01880000000000eb
:10041000000020000000e000020032000001200087
:1004200020028800140007006b0207000000e000b3
:1004300003003a0060c024000100200002003700e1
:100440000000200001002000810f70000100320038
:1004500014000700000020000000e000020032004d
:100460000000020000000000983b020000000000b5
:100470000040da000000fe004440a900a09d2000da
:100480000000e0000300320000002000a00188000e
:100490004440a800000006008a1f78008b1f7800e7
:1004a0000000060091018800800478000000eb0045
:1004b0001a003700e284440032a0b4009905ba0063
:1004c000e284440032a0b4009906ba00e2844400f9
:1004d00032a0b4000006eb00476fde00fd07b2005b
:1004e000636ce10003003a00ebff07000000eb0043
:1004f0000a003700606ce10004003a00005deb0088
:100500008b05e900fdff3e00040037006168e10053
:10051000010032000086eb000b00070019c7ba008b
:100520001905ba000e04e00003003a000a00e000da
:10053000e0ff3a0000000600fe07b2009e018800be
:100540008a047800f5ff3700395dba008b05e900b1
:100550000c003200295dba008b05e900080032006a
:100560000c00e00003003a00e284440032a0b40032
:10057000f5ff370019ddba008b05e900faff3a00f4
:100580008904e800e184440032a0b40000000600c1
:10059000100c0400000000003a0c040000000000f1
:1005a000680f040000000000820f0400000000003b
:1005b000b00f0400000000000e2304000000000043
:1005c0000000040000000000809fbe00829fbe006b
:1005d0003400f80000002000a00188000200fa00aa
:1005e0008560a9003011800000407800004f78003d
:1005f0001e407800ff4f50000c003e000ac8bf00ac
:100600000004e000110032000ac8bf000080fb00b7
:10061000118a20000041eb008270780010c0b30006
:100620000be8b7000a68ef00080037000ac8bf00ef
:100630008080fb001e41780082417800128a2000f1
:1006400003f178000040e8000ae8b7000ac8bf00dc
:10065000fd4f5000030036000ac8bf000040e9000b
:100660000ae8b7000080fa003400f9004f01be002c
:100670004f00be0000400600809fbe00829fbe006b
:100680003400f80000002000a00188000200fa00f9
:1006900087c0a900b011800000407800004f7800aa
:1006a0001e407800ff4f50000c003e000cc8bf00f9
:1006b0000004e000110032000cc8bf000080fb0005
:1006c000f18b20000041eb008270780010c0b30075
:1006d0000de8b7000c68ef00080037000cc8bf0039
:1006e0008080fb001e41780082417800f28b200060
:1006f00003f178000040e8000ce8b7000cc8bf0028
:10070000fd4f5000030036000cc8bf000040e90058
:100710000ce8b7000080fa003400f9004f01be0079
:100720004f00be00004006003600f800809fbe006b
:10073000829fbe00849fbe00869fbe003400f800ea
:1007400000002000a00188000000fa008460a900d9
:100750005016800000a0a0005016880050c8bf00ae
:100760000000fb00f100100006c8bf000080fb0085
:10077000808f50000b003a0050c8bf000000fb0003
:100780007100100080004000a08720000080400021
:100790009000780010408000008060000121070078
:1007a0000800370050c8bf000000fb0071001000b7
:1007b00080004000a08720000080400010007800ea
:1007c000f820070050c8bf000000fb00eb0010003d
:1007d00006c8bf000080fb00808f50000b003a006d
:1007e00050c8bf000000fb006b00100080004000fc
:1007f000a08720000080400090007800104080001a
:1008000000806000e72007000800370050c8bf00e4
:100810000000fb006b00100080004000a08720005b
:100820000080400010007800de20070050c8bf00a4
:100830000000fb00e500100006c8bf000080fb00c0
:10084000808f50000b003a0050c8bf000000fb0032
:100850006500100080004000a0872000008040005c
:10086000900078001040800000806000cd200700dc
:100870000800370050c8bf000000fb0065001000f2
:1008800080004000a0872000008040001000780019
:10089000c4200700501680000090a0005016880069
:1008a000501680000090a10050168800501680005d
:1008b0000090a0005016880050c8bf00e02007003c
:1008c00050c8bf000040e80050e8b7005016800054
:1008d00000a0a1005016880050c8bf000000fb0017
:1008e000610060000000e0001a003a002040800033
:1008f000004078007f4060000064a00080407800e5
:1009000040c1b3008621070051c8bf000004e000c9
:1009100003003a00e1cfb30050c1b30080210700cb
:1009200051c8bf00e14f500003003a00d1cfb300df
:1009300050c1b3007a21070051c8bf00e24f5000f8
:100940002e003a00b1cfb30050c1b30074210700ac
:100950002a003700204080004800de000040780078
:100960007f4060000054a0008040780040c1b30088
:100970006b21070051c8bf000004e00006003a00e8
:1009800030c1b3007721070000c0ea00ff406000db
:10099000e08920000148780051c8bf00e14f5000b5
:1009a00006003a0030c1b3006e21070000c0ea0023
:1009b000ff406000f08920000148780051c8bf0066
:1009c000e24f500006003a0030c1b3006521070035
:1009d00000c0ea00ff406000008a20000148780063
:1009e00051c8bf000040e80051e8b70051c8bf003f
:1009f000e24f5000010034005168ef0050c8bf00c2
:100a0000e54f5000200034005068ef0007c8bf00d9
:100a10000040e80007e8b70008c8bf000040e80051
:100a200008e8b70007c8bf00e24f500001003600d9
:100a30000768ef0007c8bf000080fb000000ea0065
:100a40004f00de008040780008c8bf000081fb0036
:100a5000000420000000610000f0a7000000ea0090
:100a60000000e9004f00de000040780000c0600098
:100a70000004e000020032000228ef00020037000c
:100a80000080eb00104088000080fa003400f9007c
:100a90004f03be004f02be004f01be004f00be001c
:100aa0003600f90000400600809fbe003400f800c8
:100ab00000002000a00188000000fa008500a900c5
:100ac0004cc8bf00004040004ce8b7004dc8bf0014
:100ad000004040004de8b700401680006200600012
:100ae0000000e00003003a004cc8bf000004a00072
:100af0004ce8b70040168000640060000000e00091
:100b000003003a004dc8bf000004a0004de8b70044
:100b10004ec8bf004fe8b7004e68ef004cc8bf009a
:100b20000080fb00670060000000e000030032006e
:100b30004ec8bf000004a0004ee8b7004dc8bf007b
:100b40000080fb00670060000000e000030032004e
:100b50004ec8bf000014a0004ee8b7004ec8bf004a
:100b60000014a2000080fb000000e9004f00de003e
:100b700000407800f1842000914078008180fb00e3
:100b80008100e900cf08de0081407800014060006c
:100b90000004e00003003200704080000000e80024
:100ba000704088004ec8bf000004a2000080fb0017
:100bb0000000e9004f00de0000407800f1842000d2
:100bc000914078008180fb008100e900cf08de00c1
:100bd00081407800014060000004e0000300320022
:100be000704080000000e900704088000080fa003a
:100bf0003400f9004f00be00004006000040da005b
:100c00000000fe000a00fa0011002000b1bf9f00a2
:100c1000c0bf9f006a805700350f07004fb897008c
:100c20000080fa00000006000a00fa00e20f5000ff
:100c300034003e0040658000e10f500003003200a8
:100c4000e20f500011003a000c0037000322200090
:100c50000300e00001003a000040da002002e20058
:100c6000020035002822ef0021e2a8002342ab0059
:100c70000d003a002342a8000b0037000323200098
:100c80000300e00001003a000040da003002e20018
:100c9000020035003822ef0031e2a8003342ab00f9
:100ca00001003a003342a800820178000b003700af
:100cb0003102fb00e10f500004003a002322ab0098
:100cc000feff3a0024118800030037003322ab00f6
:100cd000feff3a00a41188008301e9000300e00050
:100ce000f3ff3a00e10f500003003a002302ab008b
:100cf000feff32000b0037003302ab00feff320074
:100d00000800370033002000b3bf9f00c0bf9f0022
:100d1000d1bf9f00e2bf9f006a805700f60e070018
:100d20006fb99700020078000080fa00000006000a
:100d30000a00fa0051002000b1bf9f00c0bf9f0011
:100d40006a805700ee0e07005fb897000080fa0037
:100d500000000600889fbe00800478005065800077
:100d60000000e00004003a000e0007000084eb00e1
:100d70000000e00008003500586580000900e00030
:100d80000500320009004400060007000000e000f2
:100d900001003d000084eb00080078004f04be0015
:100da00000000600800078000100e00003003a0027
:100db0000000200050658800000005000080eb0066
:100dc00002002000828f500002003e005165880022
:100dd0000000eb000000060000000500839f680093
:100de0000100e00002003d0060001000e0801800fb
:100df0000300e00002003d0060011100e0811900e5
:100e0000050007004f00e00002003b0060001000fa
:100e1000e0801800000006006022b80006022000f2
:100e20000000d0008180d2000482d2008582d200ee
:100e30000000a0000202520083825a000300310029
:100e40000202420083824a000000a1000603e9007a
:100e5000f3ff3a0000000600889fbe008a9fbe0094
:100e600030044200b0844a0030054b0090854b00ae
:100e70006000b1000898be000a90be000440e10086
:100e800005c8e10006d0e10007d8e100020031000a
:100e9000680040001008e8004f05be004f04be0087
:100ea00000000600889fbe008a9fbe003004be007e
:100eb0002005be000418540005985c0006185d006b
:100ec00007985d00110020000440e10005c8e10022
:100ed00006d0e10007d8e100010039008000eb00f6
:100ee000108810004f05be004f04be000000060031
:100ef0001200fa00889fbe008a9fbe008c9fbe0031
:100f0000e0b79f00f1b79f0082bf9f0093bf9f0093
:100f10000605be000404be000000eb00d0b79f0031
:100f2000c0b79f00b0b79f00a0b79f0090b79f00c9
:100f3000000678005fb19700cfb0970082014100b2
:100f40003fb097000200e00004003d0037000700ba
:100f50007e805700c0ff0700030037003300070002
:100f60007e805700cfff0700dfb697000d00e0003e
:100f70000c0035006fb29700ffb297000fbb9700cf
:100f80009fbb970010002000010020006011b800f6
:100f90000002720081827200020373008383730077
:100fa0001b0007000c06e80001042000810f56001a
:100fb000e0ff3a000d00e00004003d000802be0022
:100fc0000a03be007e805700a3ff07005fa89700ba
:100fd0000000e00005003a001fb29700afb2970092
:100fe0003fb39700cfb39700090007006fb0970099
:100ff000ffb097000fb997009fb997004f06be004a
:101000004f05be004f04be000080fa00000006003d
:101010000100070000000600a4b79f00b5b79f00bd
:10102000c6b79f00d7b79f00000006004f09de003b
:1010300082817100b3b79f004f01de0081804000c4
:1010400082807000a1b79f008fb097004f09de002b
:10105000000040000200700090b79f007fa897003a
:101060004f01de00818040008280700081b79f00c8
:101070000d0007004f3ade00000040000400700041
:10108000f0af9f00080007000402420085824a007a
:1010900006034b0087834b00dfff07000802be00fa
:1010a0000a03be00000006002fb29700bfb29700ef
:1010b0004fb39700dfb3970000000600881f780049
:1010c00018002000881f780089ff07008f87e9003b
:1010d0004f04780000000600801feb0084ff07002b
:1010e0008f87e90000000600889fbe008a9fbe002f
:1010f000e00f5000e08f5800e00f5900e08f5900da
:101100000c003d006044b8006055b8000000540079
:1011100081805c0002015d0083815d001800200079
:101120001500070008003d00180007000004eb0050
:10113000050037000004eb000f00070002003d002f
:101140001200070018002000dcff07000800e00084
:10115000060032006022b8006033b8000000520080
:1011600081805a0002015b0083815b004f05be0055
:101170004f04be0000000600e00f5200e08f5a004e
:10118000e00f5b00e08f5b00000006006044b800e9
:101190006055b8000402540085825c0006035d00bf
:1011a00087835d0000000600889fbe008a9fbe0006
:1011b0008c1f7800e00f5000e08f5800e00f5900be
:1011c000e08f59000d003d006044b8006055b80044
:1011d0000000540081805c0002015d0083815d009d
:1011e0001c0020000820e10009a8e1000ab0e1008d
:1011f0000bb8e1000d003d00080037000006eb00d1
:10120000e00f5200e08f5a00e00f5b00e08f5b00c0
:1012100006003d006044b8006055b8000402540068
:1012200085825c0006035d0087835d00aaff0700de
:101230000c00e000060032006022b8006033b80005
:101240000000520081805a0002015b0083815b0034
:101250004f0678004f05be004f04be000000060098
:10126000889fbe008a9fbe008c1f78000006eb009e
:10127000e00f5000e08f5800e00f5900e08f590058
:1012800007003d006044b8006055b80000005400fd
:1012900081805c0002015d0083815d001c002000f4
:1012a000e00f5200e08f5a00e00f5b00e08f5b0020
:1012b00007003d006044b8006055b80004025400c7
:1012c00085825c0006035d0087835d000c00a20040
:1012d0000c0007000c00e000060032006022b8009d
:1012e0006033b8000000520081805a0002015b00a8
:1012f00083815b004f0678004f05be004f04be009f
:1013000000000600889fbe008a9fbe008c9fbe0022
:101310000404b8000506b8008904460060854e0044
:101320000606b8000a054600e0854e000706b8002c
:101330008b054600040eb800890446000a854e005d
:10134000e0854d00050eb8000a0546008b854e006d
:10135000060eb8008b0546000416b8000a054600c4
:101360008b854e000516b8008b054600041eb8009c
:101370008b0546000800be000a01be004f06be00f5
:101380004f05be004f04be0000000600800178003b
:1013900002003700b15978000201e9000200e000c4
:1013a000fcff3a00000006000c003700b041780056
:1013b000b1cf5100060032001000200095427800a5
:1013c00094cf52000b0031000080eb0000000600bb
:1013d0000304e000060032000201e9000102780087
:1013e000800278000200e000f0ff3a0000000500f3
:1013f0000000eb00000006008001780002003700ca
:10140000845978000201e9000200e0000600320081
:10141000314278000404e000f9ff3a00020037008e
:101420008059eb000201e9000200e000fcff3a00f5
:1014300000000600e4874700889fbe008a9fbe0028
:101440008c1f78008e1f7800000578000107780057
:10145000020678000e00e00001003a006e87570097
:101460008a0578008b047800890578003b44780071
:101470000800fb00d50007000000e000f9ff3a007b
:10148000d0c2b300804f54000300320000c0e90016
:10149000804f540002003a008904e8000100370040
:1014a000004478000c0178008e0078000900780074
:1014b0002a0007009e8f540001003a000a0f7800ae
:1014c0009e0f550003003a00e00f5000e08f5800d7
:1014d0000f003a00b2c2b300824f540004003a0039
:1014e000e00f5000e08f580016003d000800370064
:1014f000d2c2b300824f540012003a000200200012
:1015000003002800820f5000838f58000800360027
:1015100020022000e06488006b404000804f5400af
:1015200006003a00000020000100280005003700f6
:1015300060001000e080180002003700f0ff2f006c
:10154000f1ff27004f0778004f0678004f05be00d7
:101550004f04be004f00b10000000600ee874700b8
:10156000889fbe008a9fbe008c9fbe008e1f7800a1
:10157000f0b79f000106780082057800000478002b
:10158000080578000a047800b84678000d00fb00d2
:101590008e0007000000e000f9ff3a00d0c2b3005f
:1015a00080cf56000300320000c0e90080cf560013
:1015b00002003a000a05e800010037008046780082
:1015c0000b00e00005003500e18f550003003200fc
:1015d00040022000808f5500060034006044b800af
:1015e0000c00e000720032007fb09700000e78001f
:1015f000480037000b00e0000e003200f08f55006d
:101600001a003a0000c3b3009a4f100017003a00c6
:101610001a40900081c7b300814f50000300320090
:1016200081c5b300814f500010003a000a85e800e0
:101630000e003700ab00200000c3b3009a4f10002b
:101640000a003a001a40900081c7b300814f500051
:10165000040032008b00200081c5b300814f500090
:1016600002003a000a85e8000b0120000a00780019
:10167000000278000400780001c3b300b0cf10006e
:10168000fbff3200040778006044b800b4b79f0045
:101690000d00370001b8200081405000c1ef9f00cd
:1016a0006159b9000800be00d20c07004fea97004c
:1016b0000401fb00cf91de00c8b79f00d9b79f009f
:1016c00002044000838448008e0278003e00fb0044
:1016d00085bf9f00450007000b017800800078005f
:1016e00000b82000370407008fba97000000e00020
:1016f000e8ff3a003fb29700850f550007003a0017
:101700006044b8000c00e00029003200ffb29700ee
:10171000050e78006044b8002500370004825200ae
:1017200050ba200060c07d000000fb0000025200a3
:101730001700330011003a004fe997000200fb0048
:10174000cf80de000000540081805c00800f5400d8
:10175000818f5c00090039006159b90085bf9f0085
:10176000adfd07008fba97004fb19700dfb197002a
:10177000820f5000838f58000500320020022000a5
:10178000e06488000084eb008084eb0005003700f3
:10179000d0c2b30080cf560002003a0060041400ab
:1017a000e0841c000c00e00001003200050e78000f
:1017b0000800be004f0778004f06be004f05be0070
:1017c0004f04be00ef00b100000006006900e10018
:1017d000040035006d00e100030034000002b10098
:1017e00001003200000005001000050080007800b4
:1017f0001104b100030035009101b10001003c006b
:101800000050a00000000600f06480000000e0002e
:101810000100320000000100c0c9200000000600e5
:10182000900178000200e00002003a000308e9009d
:10183000050037008080eb001304e0000200320056
:101840000308e8009300fb00010078000000060098
:101850000200fa00f0bf9f00ea8157003fb99700ed
:101860008f80e90000c12000d10007000080fa004d
:1018700000000600889fbe00000478000203be003e
:1018800081047800080278008901780012002000a5
:101890000600be00f2050700890f5000010032006b
:1018a0000004eb00080078004f04be0000000600b2
:1018b0006800fa00889fbe008a9fbe0080047800fe
:1018c0000104780082057800030578008400780020
:1018d00000f92f000f004000df050700d98f9f009f
:1018e000fb8f9f000000eb00a09f9f00e88f9f00f0
:1018f0009a84fb000904fb008904ea00cf4cde0057
:1019000050022000800f54000d003200e18f54007f
:101910000b003a00090178008a0078007f88970060
:10192000df89970003000100f08f9f000000e000b6
:10193000950032002f9897000000e800a09f9f00bc
:101940000905450050022000800f540004003200b9
:101950000800e000e6ff3a002f9897008b00370060
:101960000000eb00809f9f00f0979f00e0979f0092
:10197000d0979f00c0979f00b0979f000700370047
:1019800001c72000010050000000400041c62000b7
:1019900061007800cf98970001007000c09f9f0001
:1019a0000a04780008057800ba4478008900fb0032
:1019b00000c720008d0307000000e000f0ff3a00a0
:1019c000a1c2b30081cf54000e003a008f88970067
:1019d0000180e900808f9f0010007800b09f9f0079
:1019e0000000e00005003d000000ea00b09f9f00fd
:1019f0004f9897000020a000c09f9f000804e800b7
:101a000010003700b09f9f00880078000000eb00b6
:101a100005003700f3ff2700830f5000020032005b
:101a20006a02b900040041000104780088007800cf
:101a30003101fb000203b100e90f5100f5ff360050
:101a4000b09f9f00e0c2b300984f10000200320028
:101a50000080eb0019003700a0c2b300d84f10007f
:101a600007003a008f8897000180e900808f9f006f
:101a700010007800909f9f000804e80010003700d5
:101a80000000eb00909f9f00880078000500370061
:101a9000f3ff2700830f5000020032006a02b900f2
:101aa0000400410001047800880078003101fb0047
:101ab0000203b100e90f5100f5ff3600909f9f002f
:101ac000984478008900fb00c0c520004703070048
:101ad0000000e000020032000804e80001003700c6
:101ae0008044eb00a97f9f0080c6b30080cf5400e4
:101af00006003a0098cf140010003a0066405000eb
:101b0000a07f9f000804e8000c003700c0c6b300a7
:101b100080cf540009003a0098cf140007003a0023
:101b200067404000d84f100002003a006e4050005d
:101b30000100370010c7b300a07f9f001801fb0011
:101b4000c3fb2f008f81410001f92f008f804000df
:101b500020f92f000f004000d00107000000e00036
:101b600009003a00c1fb2f008f80400020f92f00b0
:101b70000f0040005e0407000000e0000200350096
:101b80000805e8005aff37000080eb004f05be0053
:101b90004f04be000080fa00000006000302780037
:101ba0008201780001017800a1c3200040ff3700c6
:101bb0001200fa00889fbe008a9fbe008c1f78002a
:101bc00002047800a0b79f00b1b79f00830078009f
:101bd00078805700200507000000eb00e0b79f0069
:101be000d8b79f00000478005fb697009c85fb0083
:101bf0008b04fb008b05ea00cf5dde000900780056
:101c0000f2fe07000000e0001b0032006fb09700fa
:101c10000000e800e0b79f00120020008000eb0009
:101c20003fb09700afb197000300010000057800b6
:101c30000a007800e5fe07000000e000f3ff3a002c
:101c40006fb09700e10f4500080032000000e90086
:101c5000e0b79f000001eb008a0078003fb09700da
:101c6000afb1970003000100220037000000e90037
:101c7000e0b79f001f00370050022000808f540003
:101c800002003a000b05e900180037000b05780048
:101c9000160037006fb097000000e800e0b79f0023
:101ca000120020008000eb003fb09700afb197001a
:101cb00003000100bc00fb00810f50000b0032004c
:101cc000e10f40007c003200efb097008100e90096
:101cd000e1b79f000001eb00800078003fb0970063
:101ce000afb1970003000100730037000a05e90057
:101cf000e8ff3b005fb097008b054000dbb79f001b
:101d000050022000808f5400030032000900e000e0
:101d1000b5ff3a00680037009b4078000040eb00b8
:101d2000a2c2b30082cf500003003a008b05e80046
:101d3000dbb79f0001407800a0f79f000000eb0098
:101d400080bf9f000b0037000fb89700f2ff2700fd
:101d5000820f5000050032006a01b90000fd2f001b
:101d6000020040000100400080bf9f000a05e8001b
:101d7000dab79f005fb597009a4478008900fb00ae
:101d800000fd2f0001004000e90f5000eeff36007b
:101d900000c92000950207000000e00003003200a7
:101da0000a05e800dab79f00010037008044eb0025
:101db000b9f79f005fb0970081c6b30081cf540090
:101dc00004003a0090cf14000b003a00e6c0500027
:101dd00006003700c1c6b30081cf540006003a00a8
:101de00090cf140004003a00e5c04000b1f79f0016
:101df0000000e800d0b79f005fb097009000fb00a4
:101e000070c92000790207000000e0001a003a00c3
:101e10006fb097000000e800e0b79f0012002000bc
:101e20008000eb003fb09700afb1970003000100c6
:101e3000800478000900780064fe07000000e000dc
:101e4000f3ff3a006fb09700e18f440008003200c2
:101e50000000e900e0b79f000001eb008900780076
:101e60003fb09700afb197000300010002003700b8
:101e70000000e900e0b79f007c8057001f050700c5
:101e80000000e00003003c000800e0000a003a0007
:101e9000080037004ff097000004e0000100320016
:101ea0000804e8005fb097000000e800d0b79f008a
:101eb0004dff370000047800080078004f067800d6
:101ec0004f05be004f04be000080fa00000006006f
:101ed000889fbe00800478000203be0001047800e1
:101ee0006149b800898fd2008381d200080278004e
:101ef0000600be00840a0700088044004f04be00ac
:101f000000000600881f78000204780008017800ad
:101f10001efd0700080040004f0478000000060086
:101f20000000fa00881f7800000478006a825700d9
:101f3000bfb997000801780081f6200020f8200042
:101f4000160007000000e000020035008040eb00b2
:101f5000017478004f0478000080fa000000060049
:101f6000889fbe00000478000203be008104780050
:101f70000802780089017800120020000600be00e7
:101f800037040700890f5000010032000004eb0005
:101f9000080078004f04be00000006006800fa0048
:101fa000889fbe008a9fbe008004780001047800ec
:101fb00082057800030578008400780000f92f007e
:101fc0000f00400024040700d98f9f00fb8f9f0063
:101fd0000000eb00a09f9f00e88f9f009a84fb0009
:101fe0000904fb008904ea00cf4cde005002200007
:101ff000800f54000d003200e18f54000b003a00b6
:10200000090178008a0078007f889700df899700af
:1020100003000100f08f9f000000e00095003200f7
:102020002f9897000000e800a09f9f000905450039
:1020300050022000800f5400040032000800e0002d
:10204000e6ff3a002f9897008b0037000000eb0066
:10205000809f9f00f0979f00e0979f00d0979f0080
:10206000c0979f00b0979f0007003700a1c82000cd
:102070000100500000004000e1c72000610078002e
:10208000cf98970001007000c09f9f000a0478005d
:1020900008057800ba4478008900fb00a0c8200039
:1020a000d20107000000e000f0ff3a00a1c2b30037
:1020b00081cf54000e003a008f8897000180e9001c
:1020c000808f9f0010007800b09f9f000000e0000c
:1020d00005003d000000ea00b09f9f004f98970068
:1020e0000020a000c09f9f000804e80010003700f7
:1020f000b09f9f00880078000000eb0005003700cb
:10210000f3ff2700830f5000020032006a02b9007b
:102110000400410001047800880078003101fb00d0
:102120000203b100e90f5100f5ff3600b09f9f0098
:10213000e0c2b300984f1000020032000080eb00b4
:1021400019003700a0c2b300d84f100007003a00b2
:102150008f8897000180e900808f9f001000780031
:10216000909f9f000804e800100037000000eb007b
:10217000909f9f008800780005003700f3ff27003c
:10218000830f5000020032006a02b90004004100cf
:1021900001047800880078003101fb000203b100df
:1021a000e90f5100f5ff3600909f9f00984478009a
:1021b0008900fb0060c720008c0107000000e000e0
:1021c000020032000804e800010037008044eb0000
:1021d000a97f9f0080c6b30080cf540006003a005c
:1021e00098cf140010003a0066405000a07f9f0076
:1021f0000804e8000c003700c0c6b30080cf5400cc
:1022000009003a0098cf140007003a0067404000e8
:10221000d84f100002003a006e4050000100370015
:1022200010c7b300a07f9f001801fb00c3fb2f0065
:102230008f81410001f92f008f80400020f92f008d
:102240000f004000150007000000e00009003a0000
:10225000c1fb2f008f80400020f92f000f004000ad
:10226000a30207000000e000020035000805e800b6
:102270005aff37000080eb004f05be004f04be0040
:102280000080fa0000000600030278008201780056
:102290000101780001fb200040ff3700889fbe004d
:1022a0008a1f7800000478000100780082407800de
:1022b000e2c6b30082cf5000c000320015003c00df
:1022c0006b41510082cf5000240032000a003c00d4
:1022d0007041510082cf5000f90032006541410049
:1022e00082cf50006800320050c2b30080cf50004f
:1022f00028013a002401370042c6b30082cf5000c3
:102300001b0032006541410082cf500021013a009c
:102310001700370032c7b30082cf5000e800320008
:1023200007003c006441510082cf5000560032004b
:102330000241e80082cf500016013a00d200370077
:1023400052c7b30082cf50004f00320063414100ba
:1023500082cf50000f013a004b0037009080e90017
:1023600001087800280890009140780007013700a4
:1023700008699000c4c6b300844f510007003a00ba
:102380001002780064015200020878001202be00b8
:102390004fabde00860378001100370014c7b3008e
:1023a000844f510003003200a4c6b300844f510093
:1023b00006003a0010027800680152000208780016
:1023c0003202be002203be00050037001081e90082
:1023d0000208780012027800cfa2de00612bb9005b
:1023e000049cbe000694be000868900082c6b3003c
:1023f000824f50000d00320022c6b300824f5000c1
:1024000004003a000402fb00cfa2de00612bb900f9
:102410000800370042c7b300824f5000030032006b
:1024200066414100824f500004003a00cfa2de0016
:10243000612bb900049cbe000694be003802be00a9
:102440002803be0028089000d2c2b300e00f52005b
:10245000e08f5a00e00f5b00e08f5b000800350062
:10246000381190000218a30002003200b2c2b3007b
:10247000030037000208a3004c00320002c2b30080
:10248000827178004700370008699000c4c6b30025
:10249000844f510006003a00100278006401520097
:1024a000020878001202be006033b8001100370045
:1024b00014c7b300844f510003003200a4c6b30018
:1024c000844f510006003a00100278006801520063
:1024d000020878003202be002203be000500370069
:1024e0001081e90002087800120278008002eb00f7
:1024f0006033b800049cbe000694be0008689000db
:1025000082c6b300824f50000d00320022c6b300d5
:10251000824f500004003a000482fb008002eb006e
:102520006033b8000800370042c7b300824f500044
:102530000300320066414100824f500004003a001f
:102540008002eb006033b800049cbe000694be001d
:10255000381090000038a300140032003802be008a
:102560002803be00e00f5200e08f5a00e00f5b002e
:10257000e08f5b000d00320080c7b30080cf5000b9
:102580000300320080c5b30080cf500007003a003e
:102590002808900002c3b300827178000000e800b0
:1025a000817178000000e800200c98002808900055
:1025b00080814100730498003e0037000869900054
:1025c000c3c6b3009080e900834f5100220032005f
:1025d0000a003c00e4c15100834f51002500320045
:1025e00083c1e800834f510013003200e8c151005d
:1025f000834f51001e003a000a00370043c7b30062
:10260000834f51001b003200e6c14100834f51004f
:1026100018003200e9c15100834f510014003a0004
:102620000500370001087800110078002864900048
:10263000084878005f003700010878001100780032
:1026400018129000cfa2de00612bb9000498be00e2
:102650000690be005700370001087800110078008e
:1026600018119000cf91de000288be0051003700a3
:102670009080e9000108780011007800181490009b
:10268000080878004b0037009080e90001087800c6
:1026900011027800cfa2de00612bb900049cbe00bd
:1026a0000694be00280890008081410073049800c1
:1026b00081c7b300080078005e0007003d003700c6
:1026c0000869900051c6b300814f51001a003a00ca
:1026d00010017800e4005100010878001100be00ec
:1026e000000c9800110c9800881190000300e00085
:1026f00007003d008081eb000001eb009f08070010
:102700000001be00880890008100510008003700d9
:102710000001eb00990807000081700003003200ff
:1027200008099000820050000100370088109000d6
:10273000410c98001f0037009080e90001087800e4
:10274000110578007a049800881490000900e000d0
:1027500004003d000a007800300007008004780083
:1027600007003700090178008000eb000a007800bc
:10277000140007000000e000010032008a0450004d
:10278000490c98000b0037002808900081717800f0
:102790000600370028089000808141000104e00015
:1027a00001003a0051c2b300814978000000e800fe
:1027b000200c98000000eb004f0578004f04be008d
:1027c0000000060003003700b0cf10000500320003
:1027d0000201e900800178000200e000faff3a00ff
:1027e000000005000300780000000600020037002a
:1027f0000304e000060032000001780002007800c7
:10280000b041780081cf5100f9ff3a000100370054
:102810000001eb0002007800000006008000780054
:10282000010178003104e000fdff3a000000510092
:1028300000000600fc874700889fbe008a9fbe00fc
:102840008c9fbe008e1f78000006780080c5b30004
:1028500080cf50000a0032007740400080cf500007
:102860000a0032006940400080cf50000b00320067
:10287000b0c4200080bf9f00ae0020000a003700d7
:10288000a2c3200082bf9f0006003700b3c420000f
:1028900083bf9f008e00200003003700b4c42000d7
:1028a00084bf9f000e0120003c02be002c03be002e
:1028b0000605be000404be0040c6b30080cf500031
:1028c000030032006540400080cf50000b003a000a
:1028d000e00f5200e08f5a00e00f5b00e08f5b00da
:1028e00006003d006000b8006011b800040450000c
:1028f000858458000605590087855900e80f570060
:102900000400320040002000f00f570038003a0069
:102910000100370030002000e00f5400e08f5c0021
:10292000e00f5d00e08f5d0004003a008c10900025
:102930008d0120000100e000060032008e00e90059
:10294000888060008fba9700e5c07800f1ef9f00a3
:102950007d012000800078008100e900050033003f
:102960008b05d1000a85d3008984d3000884d30065
:10297000f9ff3700089ebe000a96be00120037001d
:102980008d06e9008e00e900848060000fb9970091
:10299000e2c1780082fd2f000f01410003f17e00ab
:1029a000800078008100e900050033008783d100b2
:1029b0000683d3008582d3000482d300f9ff370059
:1029c000049ebe000696be003c02be002c03be0064
:1029d000e00f5200e08f5a00e00f5b00e08f5b00d9
:1029e0008b0034000d00e000e5ff3c00880037005c
:1029f0000c68900081c6b300814f50000b0032007c
:102a000006003c000004e00008003200e6c0500070
:102a1000814f50004e003a0004003700c1c6b30099
:102a2000814f50004a003a00210037000800e000c2
:102a300004003a000c1090008d0120000000e0001e
:102a400006003200110009000e84d8000fb997006b
:102a5000e2c07800f1ef9f007d0120001100090025
:102a60000e84d8000a003700110009000e04d800b7
:102a70008d06e9000e81b900020454008fb897005a
:102a800061417c0081fd2f008f80400082f07e003c
:102a9000000478000800e000020032000d00e000b1
:102aa000f1ff3c00cfc4de00614db90025003700c6
:102ab000e00f5400e08f5c0004003a000c1090001e
:102ac0008d0120000000e000070032006171b900b4
:102ad0000800be00c40707008fb99700e3417800e3
:102ae000f3ef9f007d0120006171b9000800be0076
:102af000c9f807000b0037006171b9000800be007b
:102b0000b6f807008d06e90000f1b9000204540090
:102b10000fba9700e4427c0084fd2f000f024200b0
:102b200005f27e000004be00e00f5000e08f580068
:102b3000020032000d00e000efff3c004fcdde0050
:102b40008a057800089ebe000a96be003000370055
:102b5000e00f5400e08f5c00e00f5d00e08f5d004f
:102b600004003a000c1090008d0120000000e000ed
:102b7000090032006172b900612bb9000800be0083
:102b80000a01be0054f907000fba970064427800aa
:102b9000f4ef9f007d0120006172b900612bb90044
:102ba0000800be000a01be0044f907000d0037000e
:102bb0006172b900612bb9000800be000a01be00b5
:102bc00049f907008d06e90000f2b9000404540039
:102bd0008fba970065427c0085fd2f008f824200ee
:102be00084f27e00009ebe000296be003c04be0041
:102bf0002c05be00e00f5400e08f5c00e00f5d008c
:102c0000e08f5d00020034000d00e000e8ff3c00b2
:102c1000e80f570010003a003c1090000038a30065
:102c20000d003200f78f560006003e0085fd2f0094
:102c30008f824200e5c07e0000c3b30080cf500009
:102c4000050032008d06e90002c3b30081fd2f00ac
:102c50008f80400082f07e0078811600420e98003e
:102c60007c00900083fd2f008f8141008d8041000a
:102c7000c6f907004c0890008c109000810f50009e
:102c800006003d0000805000300e98003c1090007f
:102c90000040a100301698000f0037000100e0004e
:102ca0000d003d00bc109000f4806000f08f5000db
:102cb00009003a002c119000ac08900081005100ee
:102cc0003c09900082805000008050004240a900e2
:102cd00001003400300e98004f0778004f06be0008
:102ce0004f05be004f04be00cf01b100000006003a
:102cf0000400fa00889fbe008a9fbe008c1f7800e7
:102d00000004780001067800a814900028089000bc
:102d10008084540038089000808454004808900053
:102d20008084540058089000808454006808900003
:102d300080845400780890008084540000022200af
:102d400090bf9f0000032300a0bf9f003810900099
:102d50000028a30015003a000900e0001300340029
:102d6000090578008a057800e20f55000100360059
:102d70002b002000c80190000b017800ee80570066
:102d80006800900003000100600498000000e0006b
:102d9000aa003200181090000b0040001014980098
:102da0000b0555004240a900eeff3c0028099000a9
:102db0000200e0000c003400c80190008c00780094
:102dc0006800900003000100600498008080eb0020
:102dd0000000e0009a00320098109000280890004f
:102de0000080400010149800380d90000a00e000a8
:102df000110034008a057800e20f5500010036000a
:102e00002b002000c80190000b017800ec805700d7
:102e10006800900003000100600498000000e000da
:102e200086003200181090000b004000101498002b
:102e30000b055500edff370008699000c8089000a9
:102e400050c6b300804f510008003a000100e00076
:102e5000150034005802900008099000980990006d
:102e60006800900004000100070037000100e00046
:102e70000d003400c801900001017800f8009000b6
:102e80006800900003000100600498008080eb005f
:102e90000000e0006a00320098109000480890009e
:102ea0000080400010149800580d90000a00e000c7
:102eb000110034008a057800e20f55000100360049
:102ec0002b002000c80190000b017800ec80570017
:102ed0006800900003000100600498000000e0001a
:102ee00056003200181090000b004000101498009b
:102ef0000b055500edff3700086990006808900049
:102f000051c6b300814f51000d003a000000e000af
:102f10001c00340078019000c808900001014100b5
:102f20006111b800828fd2008381d20058029000d4
:102f3000800078006800900004000100090037005c
:102f40000000e0000f00340078019000c8089000f5
:102f500081004100c80190000001780068009000e5
:102f600003000100600498008080eb000000e00096
:102f700033003200981090006808900000804000f4
:102f800010149800780d90000a00e0001100340041
:102f90008a057800e20f5500010036002b00200062
:102fa000c80190000b017800ec8057006800900089
:102fb00003000100600498000000e0001f003200e0
:102fc000181090000b004000101498000b055500dd
:102fd000edff3700381090008000eb000028a300c0
:102fe000170032000900e0001500340009057800e0
:102ff000e28f5400010036002a002000c801900032
:103000000a017800ee80570068009000030001007c
:10301000600498000000e0000800320018109000e2
:103020000a004000101498008a8454004240a9000d
:10303000eeff3c008000eb00010037008080eb00d9
:10304000010078004f0678004f05be004f04be0017
:103050000080fa0000000600010878000000060069
:10306000e6874700889fbe008a9fbe008c9fbe00f7
:103070008e1f780082bf9f0004047800029ab90076
:10308000f4b79f000400e000590032000fb9970028
:103090000200e000570032000006be00040778007e
:1030a000c800900068009000808f50000400390034
:1030b000080078002d0107000000e0003b0035000b
:1030c00000402000180060000a0032008e017800e5
:1030d000a20020000c00be00280607000005be006c
:1030e00000807500070032008c0455008904e80058
:1030f000050037008e0478000a0020000b00200035
:10310000010037008e0478004801900068009000ac
:1031100002005000890f5000030031008004780045
:103120000a0020000b0020006111b800828fd2003d
:103130008381d200090278000c00be00f20507006e
:10314000090757004800900009004000400498001b
:103150000a85750004003200080078002c00070082
:103160000000e00011003a000e00e0000f00320005
:103170006148b800808fd2008180d20000007800c2
:1031800000f0a1008c01d0000001d00002864100b7
:103190004220a80081864e004200a9004220ae00d5
:1031a0004200a8000c86d300bdff3700008020003d
:1031b00018006000020032000800780014000700c8
:1031c00000c020001800600002003200c80190001a
:1031d000630498007fb097000e0750000fb9970066
:1031e000110009000287d800800178000100370033
:1031f0008001eb00030078004f0778004f06be0007
:103200004f05be004f04be006f00b1000000060075
:10321000889fbe00000478000800e0000f003a001c
:103220008004eb00090478008800d00000b720007b
:10323000610078000000e00004003200f4ff0700a5
:103240000000e00001003d008084eb000804e8007d
:10325000e80f5400f4ff3a00250037000000220078
:10326000180060008004eb0021003200a8049000e8
:103270000f00370009015100384090000000fb00aa
:103280008900780068f607000000e00007003c00b5
:10329000280090004004980060049800500c9800aa
:1032a0001890a0008084eb00110037008084440057
:1032b00048019000828f5400eeff390028009000f2
:1032c000400498009800780002c02000028160004d
:1032d00001003a003800900001e8a300020032002b
:1032e0006004980001003700500c98008004eb0047
:1032f000090078004f04be0000000600881f780017
:10330000000478000040eb00005498003800900062
:103310001040780091c6b300814f50002200320067
:103320000e003c00eec05000814f5000880032007b
:1033300005003c0051c2b300814f500069003200cb
:1033400081c5b3001300370031c6b300814f500070
:10335000130032008140e8000e00370001c7b300bf
:10336000814f500007003c008140e900814f500030
:103370000d003d008140e900814f500078003a0087
:103380000c00370051c7b300814f500006003200d7
:10339000e3c04000814f500071003a000200370046
:1033a0008000eb006b00370008007800b6000700d3
:1033b0006c003700e8489000100020000104e00095
:1033c00068003a00f8489000c3c6b3002801900096
:1033d00083cf5000340032000a003c00e4c15100a9
:1033e00083cf50002a003200a0c6b30080cf500027
:1033f0001a0032006840500080cf500031003a007f
:103400000a00370043c7b30083cf500020003200ca
:10341000a0c7b30080cf50001900320069405000af
:1034200080cf500027003a000700370028009000a6
:103430000080e9002004980010007800084c9000fb
:103440000848780025003700280090000080e90037
:103450002004980010007800030037000281e90082
:10346000220498001200780048029000cfa2de00eb
:10347000612bb9000498be000690be00170037000b
:103480000281e90022049800120078001100370040
:103490000281e9002204980092007800480490001c
:1034a000880878002f0037000281e9002204980084
:1034b0009200780048019000cf91de008288be0023
:1034c00028003700280090000080e90020049800c0
:1034d00010007800480490000808780010002000d0
:1034e00020003700480090000000e80040049800e9
:1034f00098017800120020008000eb001800900076
:10350000030001008000780010002000520220001b
:10351000828f50001300320048009000e18f40007d
:10352000070032000000e90040049800980178008c
:103530000001eb00180090000300010008003700b4
:103540000000e90040049800010078000500370001
:103550008080eb0008007800c601070001003700fa
:103560000000eb004f04780000000600889fbe00ba
:103570008a1f780000047800c8009000680190005d
:103580000000eb00828f50003c00390018007800ea
:103590002200290002016000e20f51000700320002
:1035a000012020000000e00001003500012024007f
:1035b000008c70000080eb00300037000200260015
:1035c00002006000820f500009003a0038009000ad
:1035d000808f500006003900080078000cff0700bb
:1035e000800078000080eb000100e00023003a003a
:1035f0001805780000c020000000650018003a009f
:10360000a80490006002200008004000808f540051
:1036100013003a00002020008104070020049800d5
:103620000000e00005003a002904980049049800d1
:103630008904e80039049800080037000a60a000f7
:103640000a0c78004004980001202000808040008f
:1036500031049800400c9800500c98009e0307001d
:1036600028009000500498003800900060049800f2
:1036700000002600180c70000000eb004f057800d9
:103680004f04be00000006002f02b000889fbe005d
:103690008a9fbe008c1f78008e1f7800000478007f
:1036a000680090000000e00001003c00f0ff2700ef
:1036b0000000e90050049800480090000000e80075
:1036c0004004980098017800120020008000eb0070
:1036d000180090000300010000057800b0022000ef
:1036e000800f5500030032000080e800800f550075
:1036f00015003a00cad79f00d80090008100e90069
:103700005104980048009000090033000000e800d0
:103710004004980098017800120020008000eb001f
:103720001800900003000100000578000300370036
:103730000000e800400498000085eb005efd2f00cb
:103740000f074700020037004efd2f000f0747000c
:10375000380090009000fb00b0c1200023fc07005f
:10376000b1c120000100500041c12000e1457800b6
:103770008b05fb0000032000800f550033003a004a
:10378000d80090008100e9005104980048009000a2
:103790000c0033000000e800400498009801780015
:1037a000120020008000eb001800900003000100d0
:1037b0000005780080072000800f550008003200c7
:1037c000040037000000e800400498000085eb008a
:1037d0001b00370080052000800f550018003a00bc
:1037e0000b00e00002003200f08f550002013a00a9
:1037f000d80090008100e900510498004800900032
:10380000090033000000e8004004980098017800a7
:10381000120020008000eb0018009000030001005f
:1038200000057800030037000000e800400498001d
:103830000085eb000b0120000046eb000d00370077
:103840000b00e000e9003200eb0037000046eb001f
:10385000a90020000b00e0001a003200ea8f55009a
:1038600002003200e88f550002003a008b04780015
:10387000140037006901200012003700d8009000c2
:103880008100e900510498004800900009003300cd
:103890000000e80040049800980178001200200021
:1038a0008000eb0018009000030001000005780084
:1038b000030037000000e800400498000085eb009a
:1038c0001cc0b30000032000800f5500ebff320046
:1038d0000c04e00018003200005f7800160037008a
:1038e0006d805700800f5700010031000a5f78009b
:1038f000d80090008100e900510498004800900031
:10390000090033000000e8004004980098017800a6
:10391000120020008000eb0018009000030001005e
:1039200000057800030037000000e800400498001c
:103930000085eb001cc0b300e10f45000f00320012
:10394000090178008a00780030c220009dfb070042
:103950000000e000e2ff3a00480090000000e900ab
:1039600040049800980178000001eb008a0078007c
:103970001800900003000100030037004800900089
:103980000000e900400498000c04e00008003a0040
:103990008004eb0040fd2f000f004000800f570017
:1039a0008b003a00e10f450089003a00870037009c
:1039b000004feb0068489000190020000004e00070
:1039c00083003a00380090001040780041c6b300f0
:1039d000814f500003003200e5c04000814f50008d
:1039e00035003a000b0178008000eb0040fd2f000d
:1039f0000f0040009601070014c0b3000454980063
:103a0000784a9000c6c6b300a8029000864f5200c4
:103a1000240032000a003c0064435300864f5200e9
:103a20001c00320006c3e800864f5200120032002c
:103a300068435300864f52005e003a000a00370088
:103a400046c7b300864f520012003200664343005f
:103a5000864f52000f00320069435300864f5200d8
:103a600054003a00040037008582e90025049800dc
:103a700015027800380037008582e9002504980097
:103a800015027800009abe000292be0019002000c4
:103a90004f0037008582e900250498001502780060
:103aa000480037008582e900250498001502780057
:103ab000008abe00f5ff37000b0178008000eb00a4
:103ac00040fd2f000f004000b90107000954980085
:103ad00038039000a802900004c7b300964f12006c
:103ae0002a003200784a9000c6c6b300864f5200c2
:103af0002b0032000a003c0064435300864f520002
:103b00002200320006c3e800864f5200190032003e
:103b100025c6b300854f520026003a000a00370040
:103b200046c7b300864f5200180032006643430078
:103b3000864f52001500320015c7b300854f520062
:103b40001c003a0006003700280290000482e900b9
:103b50002404980014027800004a7800cbff370054
:103b6000280290000482e9002404980014027800de
:103b7000c4ff37008582e90025049800150278000b
:103b8000009abe000292be00110037008582e90053
:103b90002504980015027800000a78000c00370010
:103ba0008582e9002504980015027800008abe008d
:103bb00007003700280290000482e90024049800de
:103bc00014027800000a7800b0ff37008a047800f9
:103bd000090078004f0778004f0678004f05be00b7
:103be0004f04be002f02b100000006008b00200031
:103bf0001cc0b3001dff37001cc0b30017ff370007
:103c0000110037008001780010427800d5c2b3005f
:103c1000d3cf120008003a00814f520003003e004b
:103c2000a041900083cf500010003600e301400017
:103c30006301510003003700814f52000b00320036
:103c40000201e90003007800e20f5100edff3e00a1
:103c500003003700b0cf1000050032000201e90078
:103c60000200e000fbff3a00000005001000050024
:103c700010000500f0874700889fbe008a9fbe00a5
:103c80008c9fbe008e1f78000004be00f84d90008f
:103c90000046eb000900e00025003d0038009000e0
:103ca0000000e8003004980090407800ccef9f00be
:103cb000e2c5b30082cf500003003a000000e800e4
:103cc00030049800c1ef9f00b8069000d0c5b30043
:103cd0009d4f100002003a000d00e800010037007f
:103ce0000d007800d1052000c0fa0700c0b79f0082
:103cf0000000eb00cfb097000100e000ca003200e6
:103d00000d8550000046eb00e20f5500080034001e
:103d10000a81e9000d00e800d1022000a9fa07009d
:103d20001cc0b3000000e00001003a000046eb00b8
:103d3000680090000000e00004003c00100020003b
:103d40000900e00001003200f0ff2700cbc6b200fe
:103d50008b85fb008b05e900cf5dde0050049800e9
:103d6000684890000004e0000c003a002800900031
:103d70000b00e000050032000080e90020049800fc
:103d800010007800b0b79f00040037000080e90001
:103d90002004980010007800d0b79f000047eb0087
:103da000fbb79f0089057800660037000b00e00034
:103db000030034000d00780084f607001f00370070
:103dc0000b00e0001f0032000c04e0000d003a0080
:103dd0004fe997000204e00005003a000a0178006c
:103de0008d0078003800900076fa07000c0037004c
:103df0000a0178008d0078003800900071fa070001
:103e00000e0037004fe897000004e00007003a007a
:103e10000a0178008d0078003800900078ff0700d4
:103e20000000e00007003a005d0037000a0178005a
:103e30008d0078003800900071ff07000000e0005e
:103e400057003a00ffb097000100e00009003a0077
:103e5000684890000004e00039003a005fb1970024
:103e60000d597800d2b79f0010c0b30000549800dd
:103e700033003700cde79f008d06fb008d047800ee
:103e800009f0a7008904ea008904ea00cf4cde00ab
:103e900005003a000d00e00003003a007c80570066
:103ea0005efa07008004e8007b8257001e002000b5
:103eb0008b0278008a057800090578008404780070
:103ec000100037000e07e900c900fb004800900011
:103ed000e18f4000090032000000e9004004980032
:103ee000980178000001eb001800900085bf9f004a
:103ef000030001008fba9700020037000000e900bc
:103f0000400498008e0f5500eeff35000b05780039
:103f100085057800684890000004e00005003a003c
:103f20003fb097000d187800b0b79f0010c0b300e5
:103f300000549800680090000000e90060049800b8
:103f40002ec0b300d80090008100e9005104980011
:103f5000480090000d0033000000e8004004980085
:103f600098017800120020008000eb0018009000fb
:103f70000300010080067800e18f46008bff3a00c5
:103f80008b047800ffb597002d0037008b04780074
:103f9000ffb597000000e8004004980028003700b3
:103fa0008b047800ffb59700480090000000e900fe
:103fb00040049800980178000001eb008d00780023
:103fc00018009000030001000900e0000200320028
:103fd000e24f5700050032000e07fb000080eb00a7
:103fe00011003200100020000f00370068489000d8
:103ff0000004e00007003a000b00e000030032007c
:10400000bfb097008008eb00020037005fb1970057
:104010000b497800100020000900e00002003d007c
:10402000cfb09700310498004f0778004f06be00cc
:104030004f05be004f04be000f01b1000000060096
:10404000480090000000e90040049800deff3700bf
:10405000e4874700889fbe008a9fbe008c1f7800bf
:104060008e1f7800000578000107780002067800ae
:104070000e00e00001003a006e8757008a057800c4
:104080008b047800890578003b4478000800fb0029
:10409000cef507000000e000f9ff3a00d0c2b300ff
:1040a000804f54000300320000c0e900804f5400ec
:1040b00002003a008904e80001003700004478005b
:1040c0000c0178008e0078000900780038000700a5
:1040d0009e8f540001003a000a0f78009e0f550091
:1040e00005003a00e00f5000e08f5800e00f590043
:1040f000e08f590014003a00b4c2b300844f54005a
:1041000006003a00e00f5000e08f5800e00f590021
:10411000e08f590020003d000b003700d4c2b300ef
:10412000844f54001c003a006022b80006002000b2
:10413000070028000400e1000588e1000690e10086
:104140000798e1000900360020022000e0648800a2
:104150006b404000804f54000b003a006000b800f4
:1041600002002000030028000b0037006022b80086
:104170006033b8000000520081805a0002015b00e9
:1041800083815b0004003700f0ff2f00f1ff2f0058
:10419000f2ff2f00f3ff27004f0778004f0678004b
:1041a0004f05be004f04be004f00b10000000600e6
:1041b0000f02b000889fbe008a9fbe008c9fbe0089
:1041c0008e1f780080b79f00010778008206780074
:1041d00000047800080678000c0478003840780065
:1041e000e0e79f00804078000100fb0077f50700c2
:1041f0000000e000f7ff3a00d0c2b3006fe1970083
:10420000804f51000300320000c0e900804f510090
:1042100002003a000c06e80001003700e0e79f00ca
:104220000d00e00005003500e18f5600030032006c
:1042300040022000808f5600070034006044b80020
:104240006055b8000e00e000990032000fb29700f0
:10425000040f78005d0037000d00e0000e00320012
:10426000f08f56001a003a0000c3b3009c4f1000b4
:1042700017003a001c40900081c7b300814f5000e6
:104280000300320081c5b300814f500010003a0096
:104290000c86e8000e003700ad00200000c3b3001c
:1042a0009c4f10000a003a001c40900081c7b300e8
:1042b000814f5000040032008d00200081c5b30002
:1042c000814f500002003a000c86e8000d012000ea
:1042d0000c007800800078000100780002c3b30071
:1042e000b04f1100fbff3200e1af9f008102780068
:1042f00095b79f006044b8006055b8008cbf9f0020
:104300001c003700a1bc200081405000e1df9f006d
:10431000616ab900612bb9000800be000a01be0045
:10432000cff30700efda97000502fb00cfa2de0013
:10433000612bb900c4b79f00d5b79f00e6b79f00b7
:10434000f7b79f00a8af9f00b9af9f00caaf9f000b
:10435000dbaf9f004fb29700dfb297006fb39700bb
:10436000ffb397000004420081844a0002054b001d
:1043700083854b009fb29700a5b79f000503780087
:104380003600fb0096b79f0018f507000d01780076
:1043900080007800a0bc20000af907000000e000bf
:1043a000d8ff3a000fbe9700afb39700870f5600b3
:1043b00009003a006044b8006055b8000e00e00003
:1043c0003b0032000fb697000c0f78006044b80035
:1043d0006055b800360037002fb097006fa99700de
:1043e00082005000f0be200060c07e000000fb0094
:1043f000008050002000330019003a006fda970067
:104400000400fb00cf80de006109b9000000540009
:1044100081805c0002015d0083815d000040e1005d
:1044200001c8e10002d0e10003d8e1000c0039002e
:10443000616ab900612bb90020f307002faa970029
:10444000bfaa97004fab9700dfab97000400e100d5
:104450000588e1000690e1000798e10006003200bf
:1044600020022000e0648800f8ff2f00f9ff2f00f1
:104470000805be000a003700d0c2b300efe2970083
:1044800080cf520006003a006000b8006011b8000a
:1044900008045000898458000a0559008b8559008a
:1044a0000e00e000020032002fb39700060f7800e4
:1044b0000800be000a01be004f0778004f06be008c
:1044c0004f05be004f04be000f02b1000000060001
:1044d000e030220061003700881f780048ca2000c1
:1044e0001804e00003003a00f9ff070020c0b30001
:1044f000004c78004f04780000000600889fbe0042
:10450000000478000800780041fb07008004780070
:104510000004200018006000020032002800900013
:104520005a0007000000eb0020049800384090007b
:104530000004e000050035000000fb00b1f10700b9
:104540000000e000010032008084eb0018109000b1
:104550000000e00008003200f5f107000000e00074
:10456000010032008084eb00181090004700070023
:104570000000eb00101498000008200018006000f4
:10458000150032000001eb006000b80003b7200006
:104590000202d00063027a00880f520005003a0040
:1045a0000000400081804800008041000008eb00ce
:1045b0000600370061004000e08048000201e8008a
:1045c000e80f5000e08f5800f0ff3a000800780034
:1045d0002e0007000e003700000c780000c0eb0032
:1045e0003044980060022000080040002004980039
:1045f0004004980050049800400c98006004980013
:10460000500c98007004980076004400000c98004c
:10461000090078004f04be0000000600881f7800e3
:104620000004eb006140b800e2ff2f00f3ff2f0011
:10463000f0000700e2b72000620078000000e00010
:1046400001003200adff07000804e800e80f540045
:10465000f4ff3a004f04780000000600010020003b
:104660000100e00008003200010080000100e000cd
:10467000050032008100e900010088008100d000bf
:104680000200800000b17800000006000000e00099
:104690002f003200c0017800e38f51002c0036005b
:1046a0000308a3002a003a00116580000100e00021
:1046b00002003200810f5000040031001100980008
:1046c0001065880016003700820078001101900004
:1046d0000200e00002003200800f5100faff3900b2
:1046e0001102780084824000850f500018003900c4
:1046f000808f520003003a008308420001007800d6
:10470000070037000200e000030032008301400090
:10471000830f51000e00390012009800900098009d
:10472000900090000100e0000900320010014000fc
:10473000828f500006003a0002ca20000009eb00f8
:1047400010017800110841009100900011009800bc
:1047500000000600889fbe0000047800016580000c
:104760000100e00002003200010078000d00370077
:104770001165800020ca200004003700910f54000a
:10478000250036000180e800910090000100e00063
:10479000faff3a0010003700920f54001e00360056
:1047a0000280e800100178000200e000faff3a0001
:1047b000110178001165800020ca20000400370034
:1047c000910f5400140036000180e8009100900021
:1047d000828f5000faff3a0039658000888f5400bc
:1047e00001003100880478000900780036000700d5
:1047f0000000e00004003a00888f540005003200f9
:104800008904d100f5ff3700091878009fff0700e1
:10481000d2ff37000000eb004f04be00000006008e
:10482000881f7800630440000800a1008000eb00ae
:10483000800f540021003600e30f540001003e00b9
:104840004800200008007800c2ff07008000eb004d
:104850000000e0001900320090007800910178001b
:1048600064815100880f5100030031001101900054
:10487000020878000700370008814000020878002d
:1048800091019000130198001001780011091400a3
:1048900088087800100178000000eb000200e000ba
:1048a00004003200920190000300e0000100320099
:1048b0000280e800006588008180e800010078003f
:1048c0004f04780000000600800078000000eb0034
:1048d0000100e00005003400010078001df1070030
:1048e000e10f400001003a000000eb00000006006c
:1048f00000c0da000000060000c0da000000060078
:1049000000c0da00000006003400f8000203be0018
:10491000820270008502720002f0a60000f0a6007c
:104920008100e800a10188001500b20008003200f3
:10493000105978000402e9000d00320061004000c7
:10494000fbff39003420ec0000002800f8ff37009e
:10495000101978000482e90005003200620040006e
:10496000fbff39003420ec0000002800f8ff37007e
:104970003400f9000601be00000006000300e0005c
:1049800007003200a5018000a101880010427800d4
:10499000a50188000402fb00820f520011003200c2
:1049a0008301e900a5018000a10188001042780080
:1049b000a50188000404e00008003200000278002d
:1049c0001000b00000026a004260af0000f0a000da
:1049d0000482d2000180b000e8ff37000000200010
:1049e00001002000000006000bf107000400be00db
:1049f00000000600020ab900001bb9000200b8005e
:0c4a00008100420081004300000006001d
:020000040000fa
:104a0c00667600006d6900002e7600006f6c000069
:104a1c00745f000072650000616400005b30000090
:104a2c005d2e00006f660000667300006574000068
:104a3c00000000000000000000000000667600008e
:104a4c006d6900002e7600006f6c0000745f000032
:104a5c0072650000616400005b3000005d2e000098
:104a6c0067610000696e000000000000000000009b
:104a7c000000000000000000667600006d69000078
:104a8c002e7600006f6c0000745f000072650000f1
:104a9c00616400005b3100005d2e00006f66000059
:104aac006673000065740000000000000000000048
:104abc0000000000667600006d6900002e76000094
:104acc006f6c0000745f0000726500006164000090
:104adc005b3100005d2e000067610000696e000014
:104aec0000000000000000000000000000000000ba
:104afc00667600006d6900002e7600006f6c000079
:104b0c00745f000072650000616400005b3200009d
:104b1c005d2e00006f660000667300006574000077
:104b2c00000000000000000000000000667600009d
:104b3c006d6900002e7600006f6c0000745f000041
:104b4c0072650000616400005b3200005d2e0000a5
:104b5c0067610000696e00000000000000000000aa
:104b6c000000000000000000667600006d69000087
:104b7c002e7600006f6c0000745f000073650000ff
:104b8c00745b0000305d00002e6f00006666000054
:104b9c0073650000740000000000000000000000bd
:104bac0000000000667600006d6900002e760000a3
:104bbc006f6c0000745f000073650000745b000094
:104bcc00305d00002e670000616900006e0000007f
:104bdc0000000000000000000000000000000000c9
:104bec00667600006d6900002e7600006f6c000088
:104bfc00745f000073650000745b0000315d0000a1
:104c0c002e6f0000666600007365000074000000e3
:104c1c0000000000000000000000000066760000ac
:104c2c006d6900002e7600006f6c0000745f000050
:104c3c0073650000745b0000315d00002e6700009e
:104c4c00616900006e000000000000000000000020
:104c5c000000000000000000667600006d69000096
:104c6c002e7600006f6c0000745f0000736500000e
:104c7c00745b0000325d00002e6f00006666000061
:104c8c0073650000740000000000000000000000cc
:104c9c0000000000667600006d6900002e760000b2
:104cac006f6c0000745f000073650000745b0000a3
:104cbc00325d00002e670000616900006e0000008c
:104ccc0000000000000000000000000000000000d8
:104cdc00667600006d6900002e630000757200009e
:104cec00725f000072650000616400005b300000c0
:104cfc005d2e00006f660000667300006574000096
:104d0c0000000000000000000000000066760000bb
:104d1c006d6900002e63000075720000725f000068
:104d2c0072650000616400005b3000005d2e0000c5
:104d3c0067610000696e00000000000000000000c8
:104d4c000000000000000000667600006d690000a5
:104d5c002e63000075720000725f00007265000027
:104d6c00616400005b3100005d2e00006f66000086
:104d7c006673000065740000000000000000000075
:104d8c0000000000667600006d6900002e630000d4
:104d9c0075720000725f00007265000061640000b3
:104dac005b3100005d2e000067610000696e000041
:104dbc0000000000000000000000000000000000e7
:104dcc00667600006d6900002e63000075720000ad
:104ddc00725f000072650000616400005b320000cd
:104dec005d2e00006f6600006673000065740000a5
:104dfc0000000000000000000000000066760000cb
:104e0c006d6900002e63000075720000725f000077
:104e1c0072650000616400005b3200005d2e0000d2
:104e2c0067610000696e00000000000000000000d7
:104e3c000000000000000000667600006d690000b4
:104e4c002e63000075720000725f00007265000036
:104e5c00616400005b3300005d2e00006f66000093
:104e6c006673000065740000000000000000000084
:104e7c0000000000667600006d6900002e630000e3
:104e8c0075720000725f00007265000061640000c2
:104e9c005b3300005d2e000067610000696e00004e
:104eac0000000000000000000000000000000000f6
:104ebc00667600006d6900002e63000075720000bc
:104ecc00725f000072650000616400005b340000da
:104edc005d2e00006f6600006673000065740000b4
:104eec0000000000000000000000000066760000da
:104efc006d6900002e63000075720000725f000087
:104f0c0072650000616400005b3400005d2e0000df
:104f1c0067610000696e00000000000000000000e6
:104f2c000000000000000000667600006d690000c3
:104f3c002e63000075720000725f00007265000045
:104f4c00616400005b3500005d2e00006f660000a0
:104f5c006673000065740000000000000000000093
:104f6c0000000000667600006d6900002e630000f2
:104f7c0075720000725f00007265000061640000d1
:104f8c005b3500005d2e000067610000696e00005b
:104f9c000000000000000000000000000000000005
:104fac00666900006d7600002e63000075720000cb
:104fbc00725f000072650000616400005b300000ed
:104fcc005d2e00006f6600006673000065740000c3
:104fdc0000000000000000000000000066690000f6
:104fec006d7600002e63000075720000725f000089
:104ffc0072650000616400005b3000005d2e0000f3
:10500c0067610000696e00000000000000000000f5
:10501c000000000000000000666900006d760000d2
:10502c002e63000075720000725f00007265000054
:10503c00616400005b3100005d2e00006f660000b3
:10504c0066730000657400000000000000000000a2
:10505c0000000000666900006d7600002e63000001
:10506c0075720000725f00007265000061640000e0
:10507c005b3100005d2e000067610000696e00006e
:10508c000000000000000000000000000000000014
:10509c00666900006d7600002e63000075720000da
:1050ac00725f000072650000616400005b320000fa
:1050bc005d2e00006f6600006673000065740000d2
:1050cc000000000000000000000000006669000005
:1050dc006d7600002e63000075720000725f000098
:1050ec0072650000616400005b3200005d2e000000
:1050fc0067610000696e0000000000000000000005
:10510c000000000000000000666900006d760000e1
:10511c002e63000075720000725f00007265000063
:10512c00616400005b3300005d2e00006f660000c0
:10513c0066730000657400000000000000000000b1
:10514c0000000000666900006d7600002e63000010
:10515c0075720000725f00007265000061640000ef
:10516c005b3300005d2e000067610000696e00007b
:10517c000000000000000000000000000000000023
:10518c00666900006d7600002e63000075720000e9
:10519c00725f000072650000616400005b34000007
:1051ac005d2e00006f6600006673000065740000e1
:1051bc000000000000000000000000006669000014
:1051cc006d7600002e63000075720000725f0000a7
:1051dc0072650000616400005b3400005d2e00000d
:1051ec0067610000696e0000000000000000000014
:1051fc000000000000000000666900006d760000f1
:10520c002e63000075720000725f00007265000072
:10521c00616400005b3500005d2e00006f660000cd
:10522c0066730000657400000000000000000000c0
:10523c0000000000666900006d7600002e6300001f
:10524c0075720000725f00007265000061640000fe
:10525c005b3500005d2e000067610000696e000088
:10526c000000000000000000000000000000000032
:10527c00666900006d7600002e63000075720000f8
:10528c00725f000073650000745b0000305d00000d
:10529c002e6f00006666000073650000740000004d
:1052ac000000000000000000000000006669000023
:1052bc006d7600002e63000075720000725f0000b6
:1052cc0073650000745b0000305d00002e67000009
:1052dc00616900006e00000000000000000000008a
:1052ec000000000000000000666900006d76000000
:1052fc002e63000075720000725f00007365000081
:10530c00745b0000315d00002e6f000066660000cb
:10531c007365000074000000000000000000000035
:10532c0000000000666900006d7600002e6300002e
:10533c0075720000725f000073650000745b000002
:10534c00315d00002e670000616900006e000000f6
:10535c000000000000000000000000000000000041
:10536c00666900006d7600002e6300007572000007
:10537c00725f000073650000745b0000325d00001a
:10538c002e6f00006666000073650000740000005c
:10539c000000000000000000000000006669000032
:1053ac006d7600002e63000075720000725f0000c5
:1053bc0073650000745b0000325d00002e67000016
:1053cc00616900006e000000000000000000000099
:1053dc000000000000000000666900006d7600000f
:1053ec002e63000075720000725f00007365000090
:1053fc00745b0000335d00002e6f000066660000d9
:10540c007365000074000000000000000000000044
:10541c0000000000666900006d7600002e6300003d
:10542c0075720000725f000073650000745b000011
:10543c00335d00002e670000616900006e00000003
:10544c000000000000000000000000000000000050
:10545c00666900006d7600002e6300007572000016
:10546c00725f000073650000745b0000345d000027
:10547c002e6f00006666000073650000740000006b
:10548c000000000000000000000000006669000041
:10549c006d7600002e63000075720000725f0000d4
:1054ac0073650000745b0000345d00002e67000023
:1054bc00616900006e0000000000000000000000a8
:1054cc000000000000000000666900006d7600001e
:1054dc002e63000075720000725f0000736500009f
:1054ec00745b0000355d00002e6f000066660000e6
:1054fc007365000074000000000000000000000054
:10550c0000000000666900006d7600002e6300004c
:10551c0075720000725f000073650000745b000020
:10552c00355d00002e670000616900006e00000010
:10553c00000000000000000000000000000000005f
:10554c00666900006d7600002e7600006f6c00001e
:10555c00745f000072650000616400005b30000045
:10556c005d2e00006f66000066730000657400001d
:10557c000000000000000000000000006669000050
:10558c006d7600002e7600006f6c0000745f0000da
:10559c0072650000616400005b3000005d2e00004d
:1055ac0067610000696e0000000000000000000050
:1055bc000000000000000000666900006d7600002d
:1055cc002e7600006f6c0000745f000072650000a6
:1055dc00616400005b3100005d2e00006f6600000e
:1055ec0066730000657400000000000000000000fd
:1055fc0000000000666900006d7600002e76000049
:10560c006f6c0000745f0000726500006164000044
:10561c005b3100005d2e000067610000696e0000c8
:10562c00000000000000000000000000000000006e
:10563c00666900006d7600002e7600006f6c00002d
:10564c00745f000072650000616400005b32000052
:10565c005d2e00006f66000066730000657400002c
:10566c00000000000000000000000000666900005f
:10567c006d7600002e7600006f6c0000745f0000e9
:10568c0072650000616400005b3200005d2e00005a
:10569c0067610000696e000000000000000000005f
:1056ac0000000000000000000a0000004f4b00004a
:1056bc0000730000623100000073000061300000d4
