:020000040000fa
:080000000002040000000000f2
:020000040000fa
:040008009e06000050
:020000040000fa
:04000c009e0600004c
:020000040000fa
:040010009e06000048
:020000040000fa
:040014009e06000044
:020000040000fa
:040018009e06000040
:020000040000fa
:04001c009e0600003c
:020000040000fa
:040020009e06000038
:020000040000fa
:040024009e06000034
:020000040000fa
:040028009e06000030
:020000040000fa
:04002c009e0600002c
:020000040000fa
:040030009e06000028
:020000040000fa
:040034003404000090
:020000040000fa
:040038009e06000020
:020000040000fa
:04003c009e0600001c
:020000040000fa
:040040009e06000018
:020000040000fa
:040044009e06000014
:020000040000fa
:04004800f4050000bb
:020000040000fa
:04004c009e0600000c
:020000040000fa
:040050009e06000008
:020000040000fa
:04005400780300002d
:020000040000fa
:040058009e06000000
:020000040000fa
:04005c009e060000fc
:020000040000fa
:040060009e060000f8
:020000040000fa
:040064009e060000f4
:020000040000fa
:040068009e060000f0
:020000040000fa
:04006c009e060000ec
:020000040000fa
:040070009e060000e8
:020000040000fa
:040074009e060000e4
:020000040000fa
:040078009e060000e0
:020000040000fa
:04007c009e060000dc
:020000040000fa
:040080009e060000d8
:020000040000fa
:040084009e060000d4
:020000040000fa
:040088009e060000d0
:020000040000fa
:04008c009e060000cc
:020000040000fa
:040090009e060000c8
:020000040000fa
:040094009e060000c4
:020000040000fa
:040098009e060000c0
:020000040000fa
:04009c009e060000bc
:020000040000fa
:0400a000dc0300007d
:020000040000fa
:0400a4009e060000b4
:020000040000fa
:0400a8009e060000b0
:020000040000fa
:0400ac009e060000ac
:020000040000fa
:0400b0009e060000a8
:020000040000fa
:0400b4009e060000a4
:020000040000fa
:0400b8009e060000a0
:020000040000fa
:0400bc009e0600009c
:020000040000fa
:0400c0009e06000098
:020000040000fa
:0400c4009e06000094
:020000040000fa
:0400c8009e06000090
:020000040000fa
:0400cc009e0600008c
:020000040000fa
:0400d0009e06000088
:020000040000fa
:0400d4009e06000084
:020000040000fa
:0400d8009e06000080
:020000040000fa
:0400dc009e0600007c
:020000040000fa
:0400e0009e06000078
:020000040000fa
:0400e4009e06000074
:020000040000fa
:0400e8009e06000070
:020000040000fa
:0400ec009e0600006c
:020000040000fa
:0400f0009e06000068
:020000040000fa
:0400f4009e06000064
:020000040000fa
:0400f8009e06000060
:020000040000fa
:0400fc009e0600005c
:020000040000fa
:040100009e06000057
:020000040000fa
:040104009e06000053
:020000040000fa
:040108009e0600004f
:020000040000fa
:04010c009e0600004b
:020000040000fa
:040110009e06000047
:020000040000fa
:040114009e06000043
:020000040000fa
:040118009e0600003f
:020000040000fa
:04011c009e0600003b
:020000040000fa
:040120009e06000037
:020000040000fa
:040124009e06000033
:020000040000fa
:040128009e0600002f
:020000040000fa
:04012c009e0600002b
:020000040000fa
:040130009e06000027
:020000040000fa
:040134009e06000023
:020000040000fa
:040138009e0600001f
:020000040000fa
:04013c009e0600001b
:020000040000fa
:040208009e0600004e
:020000040000fa
:04020c009e0600004a
:020000040000fa
:040210009e06000046
:020000040000fa
:040214009e06000042
:020000040000fa
:040218009e0600003e
:020000040000fa
:04021c009e0600003a
:020000040000fa
:040220009e06000036
:020000040000fa
:040224009e06000032
:020000040000fa
:040228009e0600002e
:020000040000fa
:04022c009e0600002a
:020000040000fa
:040230009e06000026
:020000040000fa
:04023400340400008e
:020000040000fa
:040238009e0600001e
:020000040000fa
:04023c009e0600001a
:020000040000fa
:040240009e06000016
:020000040000fa
:040244009e06000012
:020000040000fa
:04024800f4050000b9
:020000040000fa
:04024c009e0600000a
:020000040000fa
:040250009e06000006
:020000040000fa
:04025400780300002b
:020000040000fa
:040258009e060000fe
:020000040000fa
:04025c009e060000fa
:020000040000fa
:040260009e060000f6
:020000040000fa
:040264009e060000f2
:020000040000fa
:040268009e060000ee
:020000040000fa
:04026c009e060000ea
:020000040000fa
:040270009e060000e6
:020000040000fa
:040274009e060000e2
:020000040000fa
:040278009e060000de
:020000040000fa
:04027c009e060000da
:020000040000fa
:040280009e060000d6
:020000040000fa
:040284009e060000d2
:020000040000fa
:040288009e060000ce
:020000040000fa
:04028c009e060000ca
:020000040000fa
:040290009e060000c6
:020000040000fa
:040294009e060000c2
:020000040000fa
:040298009e060000be
:020000040000fa
:04029c009e060000ba
:020000040000fa
:0402a000dc0300007b
:020000040000fa
:0402a4009e060000b2
:020000040000fa
:0402a8009e060000ae
:020000040000fa
:0402ac009e060000aa
:020000040000fa
:0402b0009e060000a6
:020000040000fa
:0402b4009e060000a2
:020000040000fa
:0402b8009e0600009e
:020000040000fa
:0402bc009e0600009a
:020000040000fa
:0402c0009e06000096
:020000040000fa
:0402c4009e06000092
:020000040000fa
:0402c8009e0600008e
:020000040000fa
:0402cc009e0600008a
:020000040000fa
:0402d0009e06000086
:020000040000fa
:0402d4009e06000082
:020000040000fa
:0402d8009e0600007e
:020000040000fa
:0402dc009e0600007a
:020000040000fa
:0402e0009e06000076
:020000040000fa
:0402e4009e06000072
:020000040000fa
:0402e8009e0600006e
:020000040000fa
:0402ec009e0600006a
:020000040000fa
:0402f0009e06000066
:020000040000fa
:0402f4009e06000062
:020000040000fa
:0402f8009e0600005e
:020000040000fa
:0402fc009e0600005a
:020000040000fa
:040300009e06000055
:020000040000fa
:040304009e06000051
:020000040000fa
:040308009e0600004d
:020000040000fa
:04030c009e06000049
:020000040000fa
:040310009e06000045
:020000040000fa
:040314009e06000041
:020000040000fa
:040318009e0600003d
:020000040000fa
:04031c009e06000039
:020000040000fa
:040320009e06000035
:020000040000fa
:040324009e06000031
:020000040000fa
:040328009e0600002d
:020000040000fa
:04032c009e06000029
:020000040000fa
:040330009e06000025
:020000040000fa
:040334009e06000021
:020000040000fa
:040338009e0600001d
:020000040000fa
:04033c009e06000019
:020000040000fa
:10040000cf4021000e7f24000e0188000000000074
:10041000000020000000e000020032000001200087
:100420002002880014000700bb0207000000e00063
:1004300003003a00e0102a0001002000020037000b
:100440000000200001002000810f70000100320038
:1004500014000700000020000000e000020032004d
:100460000000020000000000ea740200000000002a
:100470000040da000000fe004440a900c0eb20006c
:100480000000e0000300320000002000a00188000e
:100490004440a800000006008a1f78008b1f7800e7
:1004a0000000060091018800800478000000eb0045
:1004b0001a003700e284440032a0b4009905ba0063
:1004c000e284440032a0b4009906ba00e2844400f9
:1004d00032a0b4000006eb00476fde00fd07b2005b
:1004e000636ce10003003a00ebff07000000eb0043
:1004f0000a003700606ce10004003a00005deb0088
:100500008b05e900fdff3e00040037006168e10053
:10051000010032000086eb000b00070019c7ba008b
:100520001905ba000e04e00003003a000a00e000da
:10053000e0ff3a0000000600fe07b2009e018800be
:100540008a047800f5ff3700395dba008b05e900b1
:100550000c003200295dba008b05e900080032006a
:100560000c00e00003003a00e284440032a0b40032
:10057000f5ff370019ddba008b05e900faff3a00f4
:100580008904e800e184440032a0b40000000600c1
:100590002299040000000000969904000000000069
:1005a000a29804000000000004a80400000000005d
:1005b0001aa8040000000000f2a7040000000000d8
:1005c00058670400000000006a6804000000000092
:1005d000126804000000000096680400000000009b
:1005e0005a6a040000000000e267040000000000f6
:1005f000b268040000000000866a040000000000e9
:10060000fa67040000000000ce680400000000004b
:10061000ba67040000000000106904000000000038
:10062000ce670400000000005269040000000000d2
:100630006a670400000000009469040000000000e4
:100640007e67040000000000d6690400000000007e
:100650009267040000000000f2690400000000003e
:10066000a6670400000000002a68040000000000e3
:100670004a680400000000000e6a04000000000048
:10068000b26a040000000000ee6a040000000000ee
:100690002c67040000000000e26604000000000077
:1006a000286b040000000000506b040000000000f4
:1006b000cc73040000000000726b04000000000016
:1006c000261b040000000000c41c04000000000001
:1006d000de1c0400000000000c1d040000000000ef
:1006e0005428040000000000000004000000000086
:1006f000809fbe00829fbe003400f80000002000f2
:10070000a00188000200fa008560a9003011800075
:1007100000407800004f78001e407800ff4f5000e6
:1007200012003e000ac8bf000004e00017003200bb
:100730000ac8bf000080fb00b18a2000a2c0b3003d
:10074000827078000ac8bf000080fb000000e8004b
:10075000b18a20000041eb008270780010c0b30025
:100760000be8b7000a68ef00080037000ac8bf00ae
:100770008080fb001e41780082417800b28a200010
:1007800003f178000040e8000ae8b7000ac8bf009b
:10079000fd4f5000030036000ac8bf000040e900ca
:1007a0000ae8b7000080fa003400f9004f01be00eb
:1007b0004f00be0000400600809fbe00829fbe002a
:1007c0003400f80000002000a00188000200fa00b8
:1007d00087c0a900b011800000407800004f780069
:1007e0001e407800ff4f50000c003e000cc8bf00b8
:1007f0000004e000110032000cc8bf000080fb00c4
:10080000918c20000041eb008270780010c0b30092
:100810000de8b7000c68ef00080037000cc8bf00f7
:100820008080fb001e41780082417800928c20007d
:1008300003f178000040e8000ce8b7000cc8bf00e6
:10084000fd4f5000030036000cc8bf000040e90017
:100850000ce8b7000080fa003400f9004f01be0038
:100860004f00be00004006003600f800809fbe002a
:10087000829fbe00849fbe00869fbe003400f800a9
:1008800000002000a00188000000fa008460a90098
:100890005016800000a0a0005016880076c8bf0047
:1008a0000000fb00f100100006c8bf000080fb0044
:1008b000808f50000b003a0076c8bf000000fb009c
:1008c000710010008000400040882000008040003f
:1008d000900078001040800000806000e345070031
:1008e0000800370076c8bf000000fb007100100050
:1008f0008000400040882000008040001000780008
:10090000da45070076c8bf000000fb00eb001000ce
:1009100006c8bf000080fb00808f50000b003a002b
:1009200076c8bf000000fb006b0010008000400094
:100930004088200000804000900078001040800037
:1009400000806000c94507000800370076c8bf0076
:100950000000fb006b001000800040004088200079
:100960000080400010007800c045070076c8bf0036
:100970000000fb00e500100006c8bf000080fb007f
:10098000808f50000b003a0076c8bf000000fb00cb
:10099000650010008000400040882000008040007a
:1009a000900078001040800000806000af45070094
:1009b0000800370076c8bf000000fb00650010008b
:1009c0008000400040882000008040001000780037
:1009d000a6450700501680000090a0005016880021
:1009e000501680000090a10050168800501680001c
:1009f0000090a0005016880076c8bf00c2450700ce
:100a000076c8bf000040e80076e8b70050168000c6
:100a100000a0a1005016880076c8bf000000fb00af
:100a2000610060000000e0001a003a0020408000f1
:100a3000004078007f4060000064a00080407800a3
:100a400040c1b3006846070077c8bf000004e0005b
:100a500003003a00e1cfb30050c1b3006246070083
:100a600077c8bf00e14f500003003a00d1cfb30078
:100a700050c1b3005c46070077c8bf00e24f50008a
:100a80002e003a00b1cfb30050c1b3005646070064
:100a90002a003700204080004800de000040780037
:100aa0007f4060000054a0008040780040c1b30047
:100ab0004d46070077c8bf000004e00006003a007a
:100ac00030c1b3005946070000c0ea00ff40600093
:100ad000808a20000148780077c8bf00e14f5000ad
:100ae00006003a0030c1b3005046070000c0ea00db
:100af000ff406000908a20000148780077c8bf005e
:100b0000e24f500006003a0030c1b30047460700ec
:100b100000c0ea00ff406000a08a20000148780081
:100b200077c8bf000040e80077e8b70077c8bf008b
:100b3000e24f5000010034007768ef0076c8bf0034
:100b4000e54f5000200034007668ef0007c8bf0072
:100b50000040e80007e8b70008c8bf000040e80010
:100b600008e8b70007c8bf00e24f50000100360098
:100b70000768ef0007c8bf000080fb000000ea0024
:100b80004f00de008040780008c8bf000081fb00f5
:100b9000000420000000610000f0a7000000ea004f
:100ba0000000e9004f00de000040780000c0600057
:100bb0000004e000020032000228ef0002003700cb
:100bc0000080eb00104088000080fa003400f9003b
:100bd0004f03be004f02be004f01be004f00be00db
:100be0003600f90000400600809fbe003400f80087
:100bf00000002000a00188000000fa008500a90084
:100c000072c8bf000040400072e8b70073c8bf0060
:100c10000040400073e8b7004016800062006000aa
:100c20000000e00003003a0072c8bf000004a0000a
:100c300072e8b70040168000640060000000e00029
:100c400003003a0073c8bf000004a00073e8b700b7
:100c500074c8bf0075e8b7007468ef0072c8bf00c1
:100c60000080fb00670060000000e000030032002d
:100c700074c8bf000004a00074e8b70073c8bf00c8
:100c80000080fb00670060000000e000030032000d
:100c900074c8bf000014a00074e8b70074c8bf0097
:100ca0000014a2000080fb000000e9004f00de00fd
:100cb0000040780051872000914078008180fb003f
:100cc0008100e900cf08de0081407800014060002b
:100cd0000004e00003003200704080000000e800e3
:100ce0007040880074c8bf000004a2000080fb00b0
:100cf0000000e9004f00de0000407800518720002e
:100d0000914078008180fb008100e900cf08de007f
:100d100081407800014060000004e00003003200e0
:100d2000704080000000e900704088000080fa00f8
:100d30003400f9004f00be00004006000040da0019
:100d40000000fe000a00fa0011002000b1bf9f0061
:100d5000c0bf9f006a805700881107004fb89700f6
:100d60000080fa00000006000a00fa00e20f5000be
:100d700034003e0040808000e10f5000030032004c
:100d8000e20f500011003a000c003700032220004f
:100d90000300e00001003a000040da002002e20017
:100da000020035002822ef0021e2a8002342ab0018
:100db0000d003a002342a8000b0037000323200057
:100dc0000300e00001003a000040da003002e200d7
:100dd000020035003822ef0031e2a8003342ab00b8
:100de00001003a003342a800820178000b0037006e
:100df0003102fb00e10f500004003a002322ab0057
:100e0000feff3a0024118800030037003322ab00b4
:100e1000feff3a00a41188008301e9000300e0000e
:100e2000f3ff3a00e10f500003003a002302ab0049
:100e3000feff32000b0037003302ab00feff320032
:100e40000800370033002000b3bf9f00c0bf9f00e1
:100e5000d1bf9f00e2bf9f006a8057004911070081
:100e60006fb99700020078000080fa0000000600c9
:100e70000a00fa0051002000b1bf9f00c0bf9f00d0
:100e80006a805700411107005fb897000080fa00a0
:100e900000000600889fbe0080047800508080001b
:100ea0000000e00004003a000e0007000084eb00a0
:100eb0000000e00008003500588080000900e000d4
:100ec0000500320009004400060007000000e000b1
:100ed00001003d000084eb00080078004f04be00d4
:100ee00000000600800078000100e00003003a00e6
:100ef000c000210050808800000005000080eb0049
:100f0000c2402100828f500002003e0051808800c4
:100f10000000eb00000006000000050003f0a20046
:100f2000889fbe008a9fbe008c1f78004301070087
:100f30004a0133006450e1004f0032006420e100b8
:100f40005200320003826c0007003b000905d0000c
:100f50000306d000820f54000c065d000200390029
:100f6000020032008901780003067800858255006e
:100f700004003d000003fd008103fd008502ea003e
:100f80008b854200840f720002003b00600010005d
:100f9000e08018006011b8000005eb007a28e1003d
:100fa0000a00390006007800c75ddd00f707b200cf
:100fb000878075002d003700828171000a0178005a
:100fc000610560008180d1000080d3008502e900c6
:100fd000f9ff3b00060440008784480002003b0004
:100fe00060041400e0841c000988a300070032009c
:100ff0008a81710082817100610164008904d100dd
:101000000884d3008b05e800170037000978a30097
:1010100013003a000b00e000130034008b05e900d8
:101020000804440089844c000a4474000978a30031
:101030000d003a000b00e000070034008b05e900ca
:101040000804440089844c0001003a000b00200091
:101050000978a300f7ff32000001eb00020037001f
:10106000828171000a017800b60007000cf0a70029
:1010700001f0a000020137006420e10002003a0004
:10108000838f6c00020133000801be000200be0025
:10109000fb003700889fbe008a9fbe008c1f78002f
:1010a000e6000700ed00330003866c006450e100a9
:1010b0002e0032006420e100330032006150e10074
:1010c0002f0032006120e10031003200858555009b
:1010d000eb07b000090020000804200005003700dd
:1010e0000804440089844c000a00310006034300d0
:1010f00087834b000001530081815b00f8ff3300c0
:101100000203be000800a0000804440089844c00cb
:10111000f6ff3900c639dd0083017300010032009b
:10112000130020008904d1000884d3000998a3008b
:10113000050032000800a7000300a0008904d100c8
:101140000884d3008b05e8008904d1000884d3000b
:101150000001eb000281d2007a00070001f0a1003b
:101160000cf0a70001f0a000c50037006420e100ea
:10117000c70032000801be000200be00f7ff3700c2
:101180006120e100c20032006000b800f3ff3700c8
:101190000000200001f82700f0ff3700839f68005f
:1011a0000100e00002003d0060001000e080180037
:1011b0000300e00002003d0060011100e081190021
:1011c000f80007004f00e00002003b006000100044
:1011d000e0801800000006001400200060023700c4
:1011e000f4ff2f005e0237000001be007e00070002
:1011f0000470a70003f0a1006509b10016003200d9
:101200000d0035006828e10006003500f0ff2f00d2
:10121000f1ff27000300e00013003b00010028005d
:101220000000050000004000818048008502e900c0
:10123000fcff3a0008003700f88f420002003c0033
:101240008000eb00000005008100d1000080d30089
:101250008502e800fcff3a000300e00002003b00ca
:1012600060001000e0801800000006004f89de00da
:101270008201780055023700889fbe008a9fbe0019
:1012800000827000040271000482710026003200a6
:101290000004be000200be006011b8006b0920000f
:1012a000950220000182cf000a0039000541b100fb
:1012b0000082cf00070039000541b1000982cf004c
:1012c000040039000541b1000882cf000100390057
:1012d0000541b10005425200120032000a003b00f5
:1012e00082817100610164008100d1000080d3001f
:1012f0008984d3000884d3008b05e8000442e80009
:10130000f7ff3a00070037000804440089844c00c6
:1013100000004800818048008b05e9000442e90094
:10132000f9ff3a00070007004f05be004f04be005a
:10133000000006006011b800cfff37000400200055
:101340000702370081002000618055000b003d003e
:101350000b00200061fe2f000100e1001d003400a1
:1013600082817100610164008904d1000884d30086
:101370000000e800faff3a007100200061006400fc
:1013800003007000020060000900320061044400a4
:10139000e0844c000988a500050032008b05e800b8
:1013a0006808e10002003a008904d1000884d300f3
:1013b000f20f20000258e10005003d00c75ddd008e
:1013c000f907b20089807500080078000000060067
:1013d0000bf827008b00780000000500ac01070027
:1013e0000509780000000600c70ade00f107b20018
:1013f000f50fb20008003200e1cf420002003200d7
:101400000170a00024000500810f7000010032006f
:101410000408050044000500810f700002003a0036
:10142000140005008502e9000000400081c048006a
:10143000fcff3b000170a000240005000004be007a
:10144000e9ff07000003be000405be000200be0065
:10145000e5ff0700844f7500000006000200be0093
:101460006450e100050036006420e100020036000f
:101470000968a30001003a000800be000160a00056
:101480004f0678004f05be004f04be000000060066
:10149000f0ff2f00f1ff2700f9ff3700809fbe000b
:1014a000821f78000001eb0086010700cf02780060
:1014b000808abe000001be004f00be0097fe3a00c9
:1014c0000470a6006000b80003f0a70001f0a000bf
:1014d00000000600889fbe008a9fbe008c1f780017
:1014e000d6ff0700ddff330003866c006450e10087
:1014f000240032006420e100270032006150e10046
:10150000220032006120e100210032008b85420080
:10151000eb07b1000134b800003ab80008044200fb
:1015200089844a00013ab8000030b8008880400041
:1015300009014a0004003300000040008180480097
:10154000020149008b05e900c909dd008301700033
:101550000100320013002000c814de004814dd0032
:101560004709de001200b200c808de0008847000df
:1015700074ff070001f0a1000cf0a70001f0a0002b
:10158000bfff37006120e100c1ff32000801be004b
:101590000200be00f7ff37006150e100fcff3a0097
:1015a000bbff37006022b800060220000000d00018
:1015b0008180d2000482d2008582d2000000a00087
:1015c0000202520083825a000300310002024200ec
:1015d00083824a000000a1000603e900f3ff3a00fd
:1015e00000000600889fbe008a9fbe0030044200b3
:1015f000b0844a0030054b0090854b006000b1007c
:101600000898be000a90be000440e10005c8e10051
:1016100006d0e10007d8e100020031006800400078
:101620001008e8004f05be004f04be000000060091
:10163000889fbe008a9fbe003004be002005be0009
:101640000418540005985c0006185d0007985d00ba
:10165000110020000440e10005c8e10006d0e100cf
:1016600007d8e100010039008000eb00108810006d
:101670004f05be004f04be00000006001200fa0035
:10168000889fbe008a9fbe008c9fbe00e0b79f006f
:10169000f1b79f0082bf9f0093bf9f000605be0069
:1016a0000404be000000eb00d0b79f00c0b79f004d
:1016b000b0b79f00a0b79f0090b79f0000067800ca
:1016c0005fb19700cfb09700820141003fb0970013
:1016d0000200e00004003d00370007007e80570054
:1016e000c0ff070003003700330007007e8057006b
:1016f000cfff0700dfb697000d00e0000c003500bb
:101700006fb29700ffb297000fbb97009fbb970087
:1017100010002000010020006011b80000027200db
:101720008182720002037300838373001b00070031
:101730000c06e80001042000810f5600e0ff3a008b
:101740000d00e00004003d000802be000a03be00d8
:101750007e805700a3ff07005fa897000000e0000d
:1017600005003a001fb29700afb297003fb3970051
:10177000cfb39700090007006fb09700ffb0970044
:101780000fb997009fb997004f06be004f05be00e6
:101790004f04be000080fa000000060001000700b0
:1017a00000000600a4b79f00b5b79f00c6b79f0012
:1017b000d7b79f00000006004f09de00828171004c
:1017c000b3b79f004f01de0081804000828070002f
:1017d000a1b79f008fb097004f09de0000004000c6
:1017e0000200700090b79f007fa897004f01de00b5
:1017f000818040008280700081b79f000d0007004b
:101800004f3ade000000400004007000f0af9f007f
:10181000080007000402420085824a0006034b00cc
:1018200087834b00dfff07000802be000a03be00eb
:10183000000006002fb29700bfb297004fb3970089
:10184000dfb3970000000600881f78001800200012
:10185000881f780089ff07008f87e9004f04780010
:1018600000000600801feb0084ff07008f87e9005f
:1018700000000600889fbe008a9fbe00e00f500057
:10188000e08f5800e00f5900e08f59000c003d0038
:101890006044b8006055b8000000540081805c00ce
:1018a00002015d0083815d00180020001500070023
:1018b00008003d00180007000004eb000500370099
:1018c0000004eb000f00070002003d0012000700bb
:1018d00018002000dcff07000800e00006003200ce
:1018e0006022b8006033b8000000520081805a00c6
:1018f00002015b0083815b004f05be004f04be0008
:1019000000000600e00f5200e08f5a00e00f5b007d
:10191000e08f5b00000006006044b8006055b8002e
:101920000402540085825c0006035d0087835d002d
:1019300000000600889fbe008a9fbe008c1f7800b2
:10194000e00f5000e08f5800e00f5900e08f590081
:101950000d003d006044b8006055b8000000540020
:1019600081805c0002015d0083815d001c0020001d
:101970000820e10009a8e1000ab0e1000bb8e1008d
:101980000d003d00080037000006eb00e00f52009c
:10199000e08f5a00e00f5b00e08f5b0006003d0027
:1019a0006044b8006055b8000402540085825c00b1
:1019b00006035d0087835d00aaff07000c00e000be
:1019c000060032006022b8006033b8000000520008
:1019d00081805a0002015b0083815b004f06780022
:1019e0004f05be004f04be0000000600889fbe00e9
:1019f0008a9fbe008c1f78000006eb00e00f5000ad
:101a0000e08f5800e00f5900e08f590007003d00bb
:101a10006044b8006055b8000000540081805c004c
:101a200002015d0083815d001c002000e00f520078
:101a3000e08f5a00e00f5b00e08f5b0007003d0085
:101a40006044b8006055b8000402540085825c0010
:101a500006035d0087835d000c00a2006b00070099
:101a60000c00e000060032006022b8006033b800cd
:101a70000000520081805a0002015b0083815b00fc
:101a80004f0678004f05be004f04be000000060060
:101a90000003be0054fe07006220e1000200320095
:101aa0000600be0005000500e507b100f107b20021
:101ab00004f023008480700007f0a70001f0a0006c
:101ac00024000500889fbe008a9fbe000003be0060
:101ad00045fe070085057800828152000200200043
:101ae0006220e10004003a00f307b1000400350071
:101af0007718e100040035000600be00140037002e
:101b00006000b8000f003700f50f2000faff2f002b
:101b10008502d1000a85d3008301e900fcff3b0068
:101b20008184620000046500890f7400f2ff3200b6
:101b30008582ea000a85ea0081846200000465006b
:101b400000fe070007f0a70001f0a0000081eb00f5
:101b50000200e0004f05be004f04be00000006007a
:101b6000889fbe008a9fbe00841f780033fe070056
:101b70004f00780011003300f0ff2f00838f6c00be
:101b800006003b00040565000a00a70008003700b6
:101b900009f0a6001000200008003700820f540052
:101ba000838f5c00030039001000200001003e001c
:101bb0000000200009f0a7000000ea004f05be0069
:101bc0004f04be000000e00000000600881f7800ff
:101bd000030478000300e00007003d0060001000ef
:101be000e080180060011900e081190002003b004c
:101bf00001f02d00030037009ffd070008f0a7004b
:101c000001f0a0004f04780000000600889fbe008d
:101c10008a9fbe008c9fbe000404b8000506b80071
:101c20008904460060854e000606b8000a05460095
:101c3000e0854e000706b8008b054600040eb8008c
:101c4000890446000a854e00e0854d00050eb80067
:101c50000a0546008b854e00060eb8008b0546002f
:101c60000416b8000a0546008b854e000516b8001c
:101c70008b054600041eb8008b0546000800be0018
:101c80000a01be004f06be004f05be004f04be0055
:101c9000000006000003b1000b0035009000b10009
:101ca000080034008000b100070035009001b10049
:101cb000040034007000b100030035009001b10051
:101cc00001003c0010000500000005001004b100f8
:101cd000070035009001b100040034007000b1002d
:101ce000030035009001b10001003c001000050028
:101cf000000005006900e100040035006d00e1000e
:101d0000030034000002b1000100320000000500b1
:101d1000100005000003b1000b0035009000b10079
:101d2000080034008000b100070035005000b10009
:101d300004003400b001b100030035005000b100d0
:101d400001003c0010000500000005008000780044
:101d50001104b100030035009101b10001003c0005
:101d60000050a0000000060080017800020037004b
:101d7000b15978000201e9000200e000fcff3a00de
:101d80000000060000027800808f50000c00310037
:101d900082814000830f5000090031008200400022
:101da00002003700c36078000201e9000200e00091
:101db000fcff3a0000000600315a78000201e900f9
:101dc0000200e000fcff3a000000060080017800fd
:101dd00002003700815978000201e9000200e000aa
:101de000fcff3a0000000600800078000101780046
:101df0003104e000fdff3a00000051000000060041
:101e00000002780084017800030278003404e000c6
:101e1000fcff3a0002003700845978000201e90013
:101e20000200e00003003200314278000404e000c8
:101e3000f9ff3a008049eb00000006000c00370073
:101e4000b0417800b1cf51000600320010002000f0
:101e50009542780094cf52000b0031000080eb00d7
:101e6000000006000304e000060032000201e90061
:101e700001027800800278000200e000f0ff3a00e2
:101e8000000005000000eb00000006008001780063
:101e900002003700845978000201e9000200e000e6
:101ea00006003200314278000404e000f9ff3a00f5
:101eb000020037008059eb000201e9000200e00057
:101ec000fcff3a0000000600e4874700889fbe0040
:101ed0008a9fbe008c1f78008e1f78000005780056
:101ee00001077800020678000e00e00001003a00c9
:101ef0006e8757008a0578008b0478008905780082
:101f00003b4478000800fb007aff07000000e00077
:101f1000f9ff3a00d0c2b300804f540003003200f2
:101f200000c0e900804f540002003a008904e80034
:101f300001003700004478000c0178008e00780022
:101f400009007800540207009e8f540001003a00f7
:101f50000a0f78009e0f550003003a00e00f500072
:101f6000e08f58000f003a00b2c2b300824f540015
:101f700004003a00e00f5000e08f580016003d00ca
:101f800008003700d2c2b300824f540012003a005a
:101f90000200200003002800820f5000838f5800a9
:101fa0000800360020022000e07f88006b404000df
:101fb000804f540006003a00000020000100280075
:101fc0000500370060001000e080180002003700b4
:101fd000f0ff2f00f1ff27004f0778004f06780031
:101fe0004f05be004f04be004f00b10000000600c8
:101ff000e4874700889fbe008a9fbe008c1f780040
:102000008e1f78000005780001077800020678002e
:102010000e00e00001003a006e8757008a05780044
:102020008b047800890578003b4478000800fb00a9
:1020300030ff07000000e000f9ff3a00d0c2b30013
:10204000804f54000300320000c0e900804f54006c
:1020500002003a008904e8000100370000447800db
:102060000c0178008e007800090078009e030700bc
:102070009e8f540001003a000a0f78009e0f550011
:1020800005003a00e00f5000e08f5800e00f5900c3
:10209000e08f590017003a00b4c2b300844f5400d7
:1020a00009003a00f4ff2f00f5ff27006033b80065
:1020b0000400e1000588e1000690e1000798e100d6
:1020c0000c003e001f003700d4c2b300844f540000
:1020d0001c003a0004002000050028006033b8000e
:1020e0000400e1000588e1000690e1000798e100a6
:1020f0000a00360020022000e07f88006b4040008c
:10210000804f54000c003a0000002000010028001d
:10211000f2ff2f00f3ff2f000a0037006022b80003
:102120006033b8000000520081805a0002015b0059
:1021300083815b0003003700f0ff2f00f1ff2700d1
:102140006011b8004f0778004f0678004f05be00b9
:102150004f04be004f00b100000006000e00fa0060
:10216000889fbe008a9fbe008c1f7800a0bf9f0082
:10217000010478000205be00800478008800780021
:102180006c80570033010700680660000002780089
:102190000430a100e10f520013003a00f48157000f
:1021a00008017800afb897000900780041000700e7
:1021b0000000e00002003a006000b80003003700b1
:1021c0000fb897009fb8970028fc0700c0b79f0082
:1021d000d1b79f006fb19700ffb197000a0141008e
:1021e0008b81490016003700e20f520018003a00b8
:1021f00014002000f481570008017800afb8970060
:1022000009007800400207000000e00002003a00e8
:102210006000b800030037000fb897009fb8970020
:1022200012fc0700c0b79f00d1b79f006fb19700a5
:10223000ffb19700788057007a0407000a01be00ba
:102240004fb09700dfb09700090407000d0037007a
:10225000e30f520003003a000000200001f82700bd
:10226000050037006000b800e40f520005003a0096
:10227000f0ff2f00f1ff2700c0b79f00d1b79f00ec
:1022800002003700c0b79f00d1b79f004fb0970042
:10229000dfb097000c00e0000100320001f0a20066
:1022a0004f0678004f05be004f04be000080fa00c4
:1022b00000000600ea874700889fbe008a9fbe0094
:1022c0008c9fbe008e1f7800d0b79f00e2b79f00a2
:1022d000030478006722b900840678000006eb004a
:1022e000010037001c002000810578008b00780079
:1022f00000c3b300b14f1000faff3200000ceb0036
:1023000038147800080578008004eb0029003700b5
:102310008d8f540017003d0072002000110009004d
:102320008204d8000100e00003003a006405450083
:10233000001deb000015eb001b02fb00cfa2de002e
:102340000403b1000580b100a200200003002000ba
:102350001a00be00f4b79f0085bf9f00480c07001d
:102360007fb297008fba9700001d420001954a0086
:102370000d0037001000200001002000180c400064
:10238000589448008d8f540008003a0040c3b300b1
:102390009b4f1000050034001200200003002000b5
:1023a0001a0d41005a9549008904e8008b05e800a0
:1023b0001c0020001b4078008000fb000103b100de
:1023c000e98f5000d2ff36008d8f54000100340099
:1023d0008d047800e1c2b300814f500001003a0043
:1023e0008b05e8000900e0002b003a000b007800a4
:1023f000050037000081eb008081eb00180c4100e4
:10240000589449001c0020008005780001c3b300e7
:10241000b0cf1000f7ff32001f0037008d8f54003f
:102420001c003d0072002000110009008204d80049
:102430000100e00003003a0064054500001deb00c8
:102440000015eb007bfa97000402fb00cfa2de0030
:102450000403b1000580b100a200200003002000a9
:102460001a00be00f4b79f0085bf9f00040c070050
:102470007fb297008fba9700001d420001954a0075
:102480008904e8000080eb008080eb00180c40001d
:10249000589448001c0020000b0778008e05780037
:1024a0003b00fb000003b100e90f5000dbff3600ea
:1024b0008c0578007d002000110009008d04d800f3
:1024c0000100e00016003200818656001a01be00ad
:1024d000e00f5100e08f5900070032000d00e900c5
:1024e0004200dd0001f92000008040001000be0025
:1024f000e30b0700008dbe00898446006168b900c7
:10250000181c10001894180005003700e7845400c8
:102510007200200003002000180c4100589449006c
:10252000e68f5400040034002a00be00e00f500083
:10253000e08f5800f5ff32000c00e000340032005c
:102540001e40780051c6b300814f50000300320096
:1025500051c4b300814f50002c003a005e45780012
:10256000b0c2b300804f550003003200d1c2b300a7
:10257000814f550002003a000e07e80001003700c5
:10258000004578000e0678006000b8008005eb007a
:102590000f003700f20f2e00535f2000820f500013
:1025a000838f580009003c00a20020000300200097
:1025b000b30b07000d01fb00cf91de000203b10059
:1025c0000380b10002004000838048001b0020000f
:1025d0000c0778000e067800bc4678000d01fb0061
:1025e0000203b100e90f5100eaff3600d2c2b30086
:1025f000824f550002003a0060001000e080180091
:10260000180c400058944800010037008c057800f1
:10261000efb197000300e000050032000b00e0007e
:1026200001003a005fb797006fb097000e0878007e
:1026300072002000110009008204d8004f077800c2
:102640004f06be004f05be004f04be00af00b100f4
:1026500000000600889fbe008a9fbe008c9fbe00bf
:102660000004780001067800980478008905780055
:102670000b0578008a057800bb4678000d00fb004a
:102680009cfd07000000e000f9ff3a00d0c2b30053
:1026900080cf560003003a000b057800810020002f
:1026a000050037008000eb00b0c2b30080cf5600b9
:1026b00001003a000b0578001a407800e2c6b3002a
:1026c000824f500003003200e2c4b300824f50003a
:1026d00027003a008a0078005141780010c6b30004
:1026e000804f5100040032000000eb0013c4b3001f
:1026f000834f51005c003a0051417800e0c6b300be
:10270000804f5100040032000000eb00e3c4b3002e
:10271000834f510054003a008104780080c2b30016
:10272000d94f10000b003a00640545008a05780077
:10273000ba4678000d00fb0056fd07000000e000df
:10274000faff3a00f0c5b30080cf5600f7ff320021
:1027500001003700890578004000200091c2b300d5
:102760009bcf100040003a008b04e8003e00370089
:1027700092c6b300824f50000300320092c4b300ef
:10278000824f50003c003a005a417800e0c6b30046
:10279000804f5100040032000000eb00e3c4b3009e
:1027a000834f510030003a005a41780060c6b300b0
:1027b000804f5100040032000000eb0063c4b300fe
:1027c000834f510028003a008a0478000100780005
:1027d0003000b300d940780092c6b30082cf5000d9
:1027e0000300320092c4b30082cf50001e003a00b2
:1027f0008900780051417800e3c6b300834f51004f
:1028000003003200e3c4b300834f510016003a00c6
:102810005141780093c6b300834f5100030032004a
:1028200093c4b300834f51000f003a005141780028
:1028300043c7b300834f51000300320043c5b300c8
:10284000834f510008003a005141780093c7b3000c
:10285000834f51000300320093c5b300834f5100f2
:1028600001003a008104e8000c00e000050032009d
:10287000090e780003003700010078000000a00076
:102880008a047800090c78004f06be004f05be0090
:102890004f04be0000000600ee874700889fbe0080
:1028a0008a9fbe008c9fbe008e1f7800f0b79f00ed
:1028b0000106780082057800000478000805780099
:1028c0000a047800b84678000d00fb0009fd0700f7
:1028d0000000e000f9ff3a00d0c2b30080cf5600fc
:1028e0000300320000c0e90080cf560002003a0029
:1028f0000a05e80001003700804678000b00e00080
:1029000005003500e18f5500030032004002200031
:10291000808f5500060034006044b8000c00e000d1
:10292000720032007fb09700000e78004800370038
:102930000b00e0000e003200f08f55001a003a0044
:1029400000c3b3009a4f100017003a001a409000dd
:1029500081c7b300814f50000300320081c5b3002e
:10296000814f500010003a000a85e8000e00370041
:10297000ab00200000c3b3009a4f10000a003a00d9
:102980001a40900081c7b300814f5000040032000c
:102990008b00200081c5b300814f500002003a0037
:1029a0000a85e8000b0120000a0078000002780088
:1029b0000400780001c3b300b0cf1000fbff320069
:1029c000040778006044b800b4b79f000d003700da
:1029d000c1ea200081405000c1ef9f006159b90059
:1029e0000800be00a60a07004fea97000401fb009a
:1029f000cf91de00c8b79f00d9b79f000204400006
:102a0000838448008e0278003e00fb0085bf9f0053
:102a1000cefc07000b01780080007800c0ea20009f
:102a2000160607008fba97000000e000e8ff3a00a2
:102a30003fb29700850f550007003a006044b80088
:102a40000c00e00029003200ffb29700050e78006c
:102a50006044b800250037000482520010ed2000c9
:102a600060c07d000000fb00000252001700330030
:102a700011003a004fe997000200fb00cf80de0012
:102a80000000540081805c00800f5400818f5c0046
:102a9000090039006159b90085bf9f00c1fa0700dc
:102aa0008fba97004fb19700dfb19700820f5000a7
:102ab000838f58000500320020022000e07f88004c
:102ac0000084eb008084eb0005003700d0c2b30027
:102ad00080cf560002003a0060041400e0841c001d
:102ae0000c00e00001003200050e78000800be0076
:102af0004f0778004f06be004f05be004f04be00d2
:102b0000ef00b10000000600e8874700889fbe0084
:102b10008a9fbe008c9fbe008e1f7800e0b79f008a
:102b200082047800030478006722b9000006eb00f5
:102b3000010037001c0020008101780000c3b300b1
:102b4000b14f1000fbff3200000ceb00381478008e
:102b5000880578000005eb002a003700840f550037
:102b600016003d0072002000110009000205d80087
:102b70000100e00003003a00e4854500801deb0001
:102b80008015eb001b06be00446bdd00cc63de004d
:102b9000870373004463dd0061f52000018052006b
:102ba00001f42000614078000000fb00cf80de00cf
:102bb000801d430081954b0010003700100020005d
:102bc00001002000180c400058944800840f550064
:102bd0000b003a0061f520000180520001f4200052
:102be00061407800e74f50000500340010002000dd
:102bf000010020009b0d4000db9548000a05e8001d
:102c00001c002000830678008d017800334778008f
:102c10008e00fb006201200060f52000f3b79f00ea
:102c200084bf9f009505070080027800ffb19700e0
:102c30000fba97000500e000c8ff3a00840f550066
:102c40000100340004057800e0c2b300804f570053
:102c500001003a008d06e8000a00e00029003a0071
:102c60000d007800050037000081eb008081eb004b
:102c7000180c4100589449001c0020008006780080
:102c800001c3b300b0cf1000f7ff32001d003700c2
:102c9000840f55001a003d00720020001100090049
:102ca0000205d8000100e00003003a00e485450079
:102cb000801deb008015eb001b03be004439dd00d6
:102cc000cc31de00830171004431dd0061f520006c
:102cd0000180520001f42000614078000000fb00f8
:102ce000cf80de00801d4100819549000a05e80083
:102cf0000081eb008081eb00180c410058944900e2
:102d00001c0020000d0778008e067800bd00fb0037
:102d10006201200060f5200084bf9f005705070076
:102d2000800278000fba97000500e000d8ff3a0053
:102d30000c01780073002000110009000305d80081
:102d40000100e0001300320001805100c200dd00ec
:102d50001b02be008100e9000300330004024200b0
:102d600085824a00fbff3700848dbe000a054000c3
:102d7000cf80de00181c10001894180005003700e2
:102d8000670555007000200001002000180c40006d
:102d900058944800e60f5500040034002b00be0094
:102da000e00f5000e08f5800f5ff32001800be0021
:102db000420add00ce02de00850272004202dd0022
:102dc000048cbe000c00e000380032001e40780089
:102dd00001c7b300814f50000300320001c5b300aa
:102de000814f500030003a000e067800dc45780034
:102df000b0c2b30080cf550003003200d1c2b3008f
:102e000081cf550002003a000c06e80001003700af
:102e1000804578006000b8000001eb001300370027
:102e2000f20f2e00535f2000820f5000838f580056
:102e30000d003c00a20020000300200084bf9f0082
:102e4000f5b79f008e0907000d01fb00cf91de0052
:102e50000203b1000380b1000200400083804800fb
:102e6000ffb297000fba9700120020000c077800fd
:102e70000e067800bc4678008d01fb000303b1000c
:102e8000e98f5100e6ff3600d3c2b30083cf55006f
:102e900002003a0060001000e0801800041c4000ae
:102ea00005944800010037000c0178000900e0009b
:102eb000040032000200e00001003a006fb7970002
:102ec0008e0c780072002000110009000205d80065
:102ed0004f0778004f06be004f05be004f04be00ee
:102ee0008f00b100000006000f02b000889fbe00f6
:102ef0008a9fbe008c9fbe008e1f780080b79f0007
:102f0000010778008206780000047800080678003f
:102f10000c04780038407800e0e79f00804078009b
:102f20000100fb0073fb07000000e000f7ff3a0020
:102f3000d0c2b3006fe19700804f51000300320010
:102f400000c0e900804f510002003a000c06e80082
:102f500001003700e0e79f000d00e00005003500ac
:102f6000e18f56000300320040022000808f56009f
:102f7000070034006044b8006055b8000e00e0005f
:102f8000990032000fb29700040f78005d003700ff
:102f90000d00e0000e003200f08f56001a003a00db
:102fa00000c3b3009c4f100017003a001c40900073
:102fb00081c7b300814f50000300320081c5b300c8
:102fc000814f500010003a000c86e8000e003700d8
:102fd000ad00200000c3b3009c4f10000a003a006f
:102fe0001c40900081c7b300814f500004003200a4
:102ff0008d00200081c5b300814f500002003a00cf
:103000000c86e8000d0120000c007800800078009c
:103010000100780002c3b300b04f1100fbff320083
:10302000e1af9f008102780095b79f006044b8002f
:103030006055b8008cbf9f001c00370061ef200076
:1030400081405000e1df9f00616ab900612bb90047
:103050000800be000a01be0064fa0700efda97001c
:103060000502fb00cfa2de00612bb900c4b79f00b0
:10307000d5b79f00e6b79f00f7b79f00a8af9f00a6
:10308000b9af9f00caaf9f00dbaf9f004fb2970060
:10309000dfb297006fb39700ffb3970000044200c0
:1030a00081844a0002054b0083854b009fb2970044
:1030b000a5b79f00050378003600fb0096b79f0078
:1030c00022fb07000d0178008000780060ef2000ef
:1030d0006a0407000000e000d8ff3a000fbe970026
:1030e000afb39700870f560009003a006044b8005c
:1030f0006055b8000e00e0003b0032000fb69700ac
:103100000c0f78006044b8006055b80036003700f6
:103110002fb097006fa9970082005000b0f12000f7
:1031200060c07e000000fb000080500020003300e3
:1031300019003a006fda97000400fb00cf80de0030
:103140006109b9000000540081805c0002015d004b
:1031500083815d000040e10001c8e10002d0e10090
:1031600003d8e1000c003900616ab900612bb90095
:10317000b5f907002faa9700bfaa97004fab970099
:10318000dfab97000400e1000588e1000690e10054
:103190000798e1000600320020022000e07f88004e
:1031a000f8ff2f00f9ff2f000805be000a003700c6
:1031b000d0c2b300efe2970080cf520006003a0081
:1031c0006000b8006011b8000804500089845800fd
:1031d0000a0559008b8559000e00e00002003200fc
:1031e0002fb39700060f78000800be000a01be004a
:1031f0004f0778004f06be004f05be004f04be00cb
:103200000f02b10000000600f07f80000000e00027
:103210000100320000000100c0ff20000000060095
:103220000600fa00881f7800000478008800780003
:1032300068805700d2bf9f00e3bf9f00d500070002
:103240005fb99700efb997001800be00a1f807001a
:10325000008cbe004fb99700cf91de0008007800c7
:10326000700007004f0478000080fa00000006009c
:103270000400fa00889fbe008a1f7800b0bf9f003c
:10328000c1bf9f000204be00e00f5100e08f590053
:103290005e0032006011b800cff707000000e000c8
:1032a0005a003200e00f5400e08f5c002a003d001d
:1032b00060041400e0841c000005eb000000200006
:1032c00001f823000808a30005003200c251dd0008
:1032d00042fe2000028141001201be007df807007d
:1032e0008904d1000884d300e00f5400e08f5c0013
:1032f000030032000a05e800e50f5500f1ff3a002f
:103300000001be000000200001f8230061f7070063
:103310000001be006a805700c1ff07000000e00006
:1033200032003d00e00f5400e08f5c0037003200b7
:10333000e2112b00f3a420006a805700b8ff0700b9
:103340000000e00029003d0061045400e0845c00be
:10335000f7ff3a00290037000005eb0000002000cd
:1033600001f823000808a30005003200c251dd0067
:1033700042fe2000028141001201be0055f8070004
:103380008984d1000884d300e00f5400e08f5c00f2
:10339000030032000a05e800e50f5500f1ff3a008e
:1033a0000001be006a8057009dff07000000e0009a
:1033b0000e003d00e00f5400e08f5c00130032006f
:1033c000e25a2c00d34927006a80570094ff070077
:1033d0000000e00005003d0061045400e0845c0052
:1033e0004240a900f6ff3c00040037000000e00066
:1033f00002003a000001200003003700e10f5000f6
:1034000002003a0080002000860007003fb89700c5
:10341000cfb897004f0578004f04be000080fa0037
:10342000000006000400fa00889fbe000004780037
:1034300088047800590078004702de008400780094
:10344000f10fb200e14f420009003a00800078001d
:10345000f107b200200020004b003a0010002000cd
:103460001800e0004800320020002000460037002d
:103470000100e0000a003a0008007800c2bf9f0087
:10348000d3bf9f0093030700800078000000eb008b
:103490004fb99700dfb997000100e0003a003c0007
:1034a0004f88de000281400083014800e00f2000c9
:1034b000800f5100e08f59000a0034001900e0002d
:1034c00003003d000000200001f82f00020037003b
:1034d0000000200001f82700008cbe001000200032
:1034e00029003700e00f5100e08f5900050034003b
:1034f0004711dd00f007280019006000800c710002
:10350000200037009900780000002800008060004b
:10351000f10fb2000170a000810c78006101510030
:10352000e0815900f70f4100e08f490004003d00a1
:10353000800c7800000ceb000000eb00120037005c
:10354000ef0f410003003d00010c7800800ceb0000
:10355000700141000201ea0009003200f000110090
:10356000990178008119dd00980078008208de005a
:10357000018c7100990078000209de00820c78004d
:10358000990c70000080eb004f04be000080fa0030
:1035900000000600889fbe000004be0000f827005f
:1035a000590060004700de00f20f2000820f50003b
:1035b0000a003a00000ceb00f2072000190161003c
:1035c0002000200015003a00100020001100e0004b
:1035d0001200320020002000100037000000e00040
:1035e00004003a00010078003a0307000000e00000
:1035f00008003c00f20728001901610001f02300d7
:10360000810c710021f82f00010c40000080eb00bc
:1036100002003700000ceb000000eb004f04be007e
:1036200000000600e50060000300320010022000e8
:10363000e07f880000000600780060000200320091
:1036400020022000e07f880000000600889fbe0066
:10365000000478000203be008104780008027800ac
:1036600089017800120020000600be004d05070009
:10367000890f5000010032000004eb0008007800c0
:103680004f04be00000006006800fa00889fbe00dc
:103690008a9fbe00800478000104780082057800cb
:1036a000030578008400780000f92f000f00400027
:1036b0003a050700d98f9f00fb8f9f000000eb00a9
:1036c000a09f9f00e88f9f009a84fb000904fb00e5
:1036d0008904ea00cf4cde0050022000800f540025
:1036e0000d003200e18f54000b003a000901780010
:1036f0008a0078007f889700df8997000300010027
:10370000f08f9f000000e000950032002f98970096
:103710000000e800a09f9f0009054500500220001e
:10372000800f5400040032000800e000e6ff3a0079
:103730002f9897008b0037000000eb00809f9f00c0
:10374000f0979f00e0979f00d0979f00c0979f0041
:10375000b0979f000700370041fc20000100500097
:103760000000400081fb200061007800cf989700a6
:1037700001007000c09f9f000a04780008057800cf
:10378000ba4478008900fb0040fc2000c502070015
:103790000000e000f0ff3a00a1c2b30081cf540066
:1037a0000e003a008f8897000180e900808f9f000b
:1037b00010007800b09f9f000000e00005003d0071
:1037c0000000ea00b09f9f004f9897000020a000e3
:1037d000c09f9f000804e80010003700b09f9f00c2
:1037e000880078000000eb0005003700f3ff270099
:1037f000830f5000020032006a02b9000400410049
:1038000001047800880078003101fb000203b10058
:10381000e90f5100f5ff3600b09f9f00e0c2b300f2
:10382000984f1000020032000080eb0019003700b2
:10383000a0c2b300d84f100007003a008f8897004d
:103840000180e900808f9f0010007800909f9f000a
:103850000804e800100037000000eb00909f9f0074
:103860008800780005003700f3ff2700830f500021
:10387000020032006a02b90004004100010478002d
:10388000880078003101fb000203b100e90f51000c
:10389000f5ff3600909f9f00984478008900fb0058
:1038a00000fb20007f0207000000e0000200320061
:1038b0000804e800010037008044eb00a97f9f0066
:1038c00080c6b30080cf540006003a0098cf1400a1
:1038d00010003a0066405000a07f9f000804e800f6
:1038e0000c003700c0c6b30080cf540009003a0076
:1038f00098cf140007003a0067404000d84f1000ee
:1039000002003a006e4050000100370010c7b300bb
:10391000a07f9f001801fb00c3fb2f008f81410097
:1039200001f92f008f80400020f92f000f00400088
:10393000080107000000e00009003a00c1fb2f0069
:103940008f80400020f92f000f004000b9030700ce
:103950000000e000020035000805e8005aff3700cb
:103960000080eb004f05be004f04be000080fa004f
:10397000000006000302780082017800010178004f
:1039800061b2210040ff3700889fbe0080047800ac
:103990000203be00010478006149b800898fd2009b
:1039a0008381d200080278000600be007906070075
:1039b000088044004f04be0000000600881f780005
:1039c0000204780008017800e7f8070008004000ca
:1039d0004f047800000006000000fa00881f7800fd
:1039e000000478006a825700bfb997000801780088
:1039f00041cc2100e0cd2100160007000000e000ce
:103a0000020035008040eb00017478004f0478001c
:103a10000080fa0000000600889fbe0000047800c5
:103a20000203be0081047800080278008901780052
:103a3000120020000600be005a040700890f500043
:103a4000010032000004eb00080078004f04be00c3
:103a5000000006006800fa00889fbe008a9fbe0032
:103a6000800478000104780082057800030578005e
:103a70008400780000f92f000f0040004704070081
:103a8000d98f9f00fb8f9f000000eb00a09f9f003d
:103a9000e88f9f009a84fb000904fb008904ea0078
:103aa000cf4cde0050022000800f54000d00320089
:103ab000e18f54000b003a00090178008a00780079
:103ac0007f889700df89970003000100f08f9f0037
:103ad0000000e000950032002f9897000000e800f9
:103ae000a09f9f000905450050022000800f540050
:103af000040032000800e000e6ff3a002f9897002b
:103b00008b0037000000eb00809f9f00f0979f0024
:103b1000e0979f00d0979f00c0979f00b0979f00ad
:103b200007003700e1fd20000100500000004000c8
:103b300021fd200061007800cf98970001007000ff
:103b4000c09f9f000a04780008057800ba447800f6
:103b50008900fb00e0fd2000d20107000000e0002a
:103b6000f0ff3a00a1c2b30081cf54000e003a002a
:103b70008f8897000180e900808f9f0010007800f7
:103b8000b09f9f000000e00005003d000000ea003b
:103b9000b09f9f004f9897000020a000c09f9f00fb
:103ba0000804e80010003700b09f9f0088007800ec
:103bb0000000eb0005003700f3ff2700830f5000e3
:103bc000020032006a02b9000400410001047800da
:103bd000880078003101fb000203b100e90f5100b9
:103be000f5ff3600b09f9f00e0c2b300984f100071
:103bf000020032000080eb0019003700a0c2b300c1
:103c0000d84f100007003a008f8897000180e90024
:103c1000808f9f0010007800909f9f000804e800ac
:103c2000100037000000eb00909f9f008800780094
:103c300005003700f3ff2700830f50000200320019
:103c40006a02b9000400410001047800880078008d
:103c50003101fb000203b100e90f5100f5ff36000e
:103c6000909f9f00984478008900fb00a0fc2000f2
:103c70008c0107000000e000020032000804e800a8
:103c8000010037008044eb00a97f9f0080c6b3008d
:103c900080cf540006003a0098cf140010003a007c
:103ca00066405000a07f9f000804e8000c00370029
:103cb000c0c6b30080cf540009003a0098cf14006a
:103cc00007003a0067404000d84f100002003a0059
:103cd0006e4050000100370010c7b300a07f9f0066
:103ce0001801fb00c3fb2f008f81410001f92f0059
:103cf0008f80400020f92f000f00400015000700c2
:103d00000000e00009003a00c1fb2f008f80400056
:103d100020f92f000f004000c60207000000e0005d
:103d2000020035000805e8005aff37000080eb006c
:103d30004f05be004f04be000080fa0000000600e0
:103d4000030278008201780001017800c1d02100cf
:103d500040ff3700889fbe008a1f7800000478006b
:103d60000100780082407800e2c6b30082cf5000a4
:103d7000c000320015003c006b41510082cf500062
:103d8000240032000a003c007041510082cf5000f4
:103d9000f90032006541410082cf500068003200d6
:103da00050c2b30080cf500028013a0024013700f0
:103db00042c6b30082cf50001b0032006541410073
:103dc00082cf500021013a001700370032c7b300fc
:103dd00082cf5000e800320007003c0064415100ef
:103de00082cf5000560032000241e80082cf5000de
:103df00016013a00d200370052c7b30082cf5000fc
:103e00004f0032006341410082cf50000f013a0061
:103e10004b0037009080e9000108780028089000e6
:103e2000914078000701370008699000c4c6b300cc
:103e3000844f510007003a001002780064015200dc
:103e4000020878001202be004fabde008603780045
:103e50001100370014c7b300844f51000300320033
:103e6000a4c6b300844f510006003a001002780047
:103e700068015200020878003202be002203be0030
:103e8000050037001081e90002087800120278006e
:103e9000cfa2de00612bb900049cbe000694be00d8
:103ea0000868900082c6b300824f50000d003200b7
:103eb00022c6b300824f500004003a000402fb0007
:103ec000cfa2de00612bb9000800370042c7b30063
:103ed000824f50000300320066414100824f500083
:103ee00004003a00cfa2de00612bb900049cbe00a2
:103ef0000694be003802be002803be0028089000c9
:103f0000d2c2b300e00f5200e08f5a00e00f5b0016
:103f1000e08f5b0008003500381190000218a30004
:103f200002003200b2c2b300030037000208a3004f
:103f30004c00320002c2b3008271780047003700a3
:103f400008699000c4c6b300844f510006003a00cf
:103f50001002780064015200020878001202be00cc
:103f60006033b8001100370014c7b300844f51000c
:103f700003003200a4c6b300844f510006003a008b
:103f80001002780068015200020878003202be0078
:103f90002203be00050037001081e9000208780006
:103fa000120278008002eb006033b800049cbe006f
:103fb0000694be000868900082c6b300824f50008d
:103fc0000d00320022c6b300824f500004003a00b8
:103fd0000482fb008002eb006033b8000800370069
:103fe00042c7b300824f50000300320066414100d7
:103ff000824f500004003a008002eb006033b800aa
:10400000049cbe000694be00381090000038a30047
:10401000140032003802be002803be00e00f520038
:10402000e08f5a00e00f5b00e08f5b000d00320074
:1040300080c7b30080cf50000300320080c5b300ba
:1040400080cf500007003a002808900002c3b30058
:10405000827178000000e800817178000000e800bb
:10406000200c98002808900080814100730498007b
:104070003e00370008699000c3c6b3009080e90095
:10408000834f5100220032000a003c00e4c151007d
:10409000834f51002500320083c1e800834f510057
:1040a00013003200e8c15100834f51001e003a0056
:1040b0000a00370043c7b300834f51001b00320092
:1040c000e6c14100834f510018003200e9c15100a0
:1040d000834f510014003a000500370001087800b2
:1040e0001100780028649000084878005f003700cd
:1040f000010878001100780018129000cfa2de00ad
:10410000612bb9000498be000690be00570037002e
:10411000010878001100780018119000cf91de009e
:104120000288be00510037009080e9000108780045
:104130001100780018149000080878004b00370030
:104140009080e9000108780011027800cfa2de001b
:10415000612bb900049cbe000694be0028089000a4
:10416000808141007304980081c7b3000800780083
:10417000810007003d0037000869900051c6b30078
:10418000814f51001a003a0010017800e4005100fc
:10419000010878001100be00000c9800110c980076
:1041a000881190000300e00007003d008081eb00d3
:1041b0000001eb00940407000001be008808900095
:1041c00081005100080037000001eb008e04070059
:1041d0000081700003003200080990008200500046
:1041e0000100370088109000410c98001f00370034
:1041f0009080e90001087800110578007a049800a1
:10420000881490000900e00004003d000a007800d6
:10421000f5f60700800478000700370009017800f0
:104220008000eb000a007800140007000000e000a6
:10423000010032008a045000490c98000b0037003e
:104240002808900081717800060037002808900047
:10425000808141000104e00001003a0051c2b30036
:10426000814978000000e800200c98000000eb0075
:104270004f0578004f04be00000006000300370021
:10428000b0cf1000050032000201e9008001780083
:104290000200e000faff3a00000005000300780089
:1042a00000000600020037000304e00006003200b0
:1042b0000001780002007800b041780081cf510001
:1042c000f9ff3a00010037000001eb00020078001e
:1042d0000000060080007800d1017800040028006a
:1042e00004826100f307b200830878001200200006
:1042f0000e003a00900178000300e0001b0032003d
:10430000830878000008eb0012ff2f000700370039
:104310008381410090027800cf2ade0085887100f9
:1043200090017800038841000201e90091017800c2
:10433000f5072000858f5100f5ff36000500370096
:10434000cf19dd009002d100058871009108d100dd
:104350000201e80091017800f50f2000858f5100df
:10436000f7ff3e00f007200080886100910872008e
:104370000200780000000600fc874700889fbe000e
:104380008a9fbe008c9fbe008e1f780000067800ba
:1043900080c5b30080cf50000a0032007740400053
:1043a00080cf50000a0032006940400080cf5000aa
:1043b0000b003200f0f7200080bf9f00ae0020000d
:1043c0000a003700e2f6200082bf9f000600370097
:1043d000f3f7200083bf9f008e002000030037000a
:1043e000f4f7200084bf9f000e0120003c02be00b5
:1043f0002c03be000605be000404be0040c6b30088
:1044000080cf5000030032006540400080cf500054
:104410000b003a00e00f5200e08f5a00e00f5b0003
:10442000e08f5b0006003d006000b8006011b8003e
:1044300004045000858458000605590087855900fa
:10444000e80f57000400320040002000f00f570032
:1044500038003a000100370030002000e00f54001f
:10446000e08f5c00e00f5d00e08f5d0004003a002b
:104470008c1090008d0120000100e0000600320049
:104480008e00e900888060008fba9700e5c0780050
:10449000f1ef9f007d012000800078008100e9009d
:1044a000050033008b05d1000a85d3008984d30031
:1044b0000884d300f9ff3700089ebe000a96be00ac
:1044c000120037008d06e9008e00e900848060004c
:1044d0000fb99700e2c1780082fd2f000f01410063
:1044e00003f17e00800078008100e90005003300c0
:1044f0008783d1000683d3008582d3000482d30052
:10450000f9ff3700049ebe000696be003c02be00c6
:104510002c03be00e00f5200e08f5a00e00f5b005a
:10452000e08f5b008b0034000d00e000e5ff3c00f5
:10453000880037000c68900081c6b300814f50009e
:104540000b00320006003c000004e00008003200ce
:10455000e6c05000814f50004e003a000400370082
:10456000c1c6b300814f50004a003a002100370015
:104570000800e00004003a000c1090008d012000bb
:104580000000e00006003200110009000e84d8008f
:104590000fb99700e2c07800f1ef9f007d01200085
:1045a000110009000e84d8000a003700110009002c
:1045b0000e04d8008d06e9000e81b90002045400f3
:1045c0008fb8970061417c0081fd2f008f804000f3
:1045d00082f07e00000478000800e0000200320053
:1045e0000d00e000f1ff3c00cfc4de00614db900da
:1045f00025003700e00f5400e08f5c0004003a0013
:104600000c1090008d0120000000e0000700320037
:104610006171b9000800be00960307008fb99700ca
:10462000e3417800f3ef9f007d0120006171b90044
:104630000800be00dbf307000b0037006171b90012
:104640000800be00d5f207008d06e90000f1b900b0
:10465000020454000fba9700e4427c0084fd2f004e
:104660000f02420005f27e000004be00e00f500081
:10467000e08f5800020032000d00e000efff3c0028
:104680004fcdde008a057800089ebe000a96be0067
:1046900030003700e00f5400e08f5c00e00f5d0059
:1046a000e08f5d0004003a000c1090008d012000a6
:1046b0000000e000090032006172b900612bb9000e
:1046c0000800be000a01be0066f407000fba97009a
:1046d00064427800f4ef9f007d0120006172b90010
:1046e000612bb9000800be000a01be0056f40700a5
:1046f0000d0037006172b900612bb9000800be00df
:104700000a01be005bf407008d06e90000f2b90063
:10471000040454008fba970065427c0085fd2f0089
:104720008f82420084f27e00009ebe000296be0090
:104730003c04be002c05be00e00f5400e08f5c007e
:10474000e00f5d00e08f5d00020034000d00e0002e
:10475000e8ff3c00e80f570010003a003c109000c2
:104760000038a3000d003200f78f560006003e000f
:1047700085fd2f008f824200e5c07e0000c3b3009c
:1047800080cf5000050032008d06e90002c3b3005f
:1047900081fd2f008f80400082f07e00788116001e
:1047a000420e98007c00900083fd2f008f81410015
:1047b0008d8041006cf507004c0890008c10900033
:1047c000810f500006003d0000805000300e980020
:1047d0003c1090000040a100301698000f003700f8
:1047e0000100e0000d003d00bc109000f48060006e
:1047f000f08f500009003a002c119000ac08900096
:10480000810051003c0990008280500000805000df
:104810004240a90001003400300e98004f07780094
:104820004f06be004f05be004f04be00cf01b100d1
:10483000000006000400fa00889fbe008a9fbe00a8
:104840008c1f78000004780001067800a8149000fe
:104850002808900080845400380890008084540018
:1048600048089000808454005808900080845400c8
:104870006808900080845400780890008084540078
:104880000002220090bf9f0000032300a0bf9f00f2
:10489000381090000028a30015003a000900e0003d
:1048a00013003400090578008a057800e20f5500ee
:1048b000010036002b002000c80190000b01780099
:1048c000ee8057006800900003000100600498002b
:1048d0000000e000aa003200181090000b00400019
:1048e000101498000b0555004240a900eeff3c0053
:1048f000280990000200e0000c003400c80190007c
:104900008c007800680090000300010060049800ab
:104910008080eb000000e0009a00320098109000c8
:10492000280890000080400010149800380d900076
:104930000a00e000110034008a057800e20f5500fb
:10494000010036002b002000c80190000b01780008
:10495000ec8057006800900003000100600498009c
:104960000000e00086003200181090000b004000ac
:10497000101498000b055500edff370008699000f2
:10498000c808900050c6b300804f510008003a009c
:104990000100e00015003400580290000809900062
:1049a000980990006800900004000100070037009b
:1049b0000100e0000d003400c80190000101780002
:1049c000f800900068009000030001006004980067
:1049d0008080eb000000e0006a0032009810900038
:1049e000480890000080400010149800580d900076
:1049f0000a00e000110034008a057800e20f55003b
:104a0000010036002b002000c80190000b01780047
:104a1000ec805700680090000300010060049800db
:104a20000000e00056003200181090000b0040001b
:104a3000101498000b055500edff37000869900031
:104a40006808900051c6b300814f51000d003a0034
:104a50000000e0001c00340078019000c8089000bd
:104a6000010141006111b800828fd2008381d20020
:104a70005802900080007800680090000400010057
:104a8000090037000000e0000f00340078019000ba
:104a9000c808900081004100c80190000001780022
:104aa0006800900003000100600498008080eb0023
:104ab0000000e00033003200981090006808900079
:104ac0000080400010149800780d90000a00e0006b
:104ad000110034008a057800e20f5500010036000d
:104ae0002b002000c80190000b017800ec805700db
:104af0006800900003000100600498000000e000de
:104b00001f003200181090000b0040001014980095
:104b10000b055500edff3700381090008000eb00ca
:104b20000028a300170032000900e000150034003f
:104b300009057800e28f5400010036002a002000a9
:104b4000c80190000a017800ee80570068009000cc
:104b500003000100600498000000e000080032003b
:104b6000181090000a004000101498008a84540025
:104b70004240a900eeff3c008000eb00010037003e
:104b80008080eb00010078004f0678004f05be00e2
:104b90004f04be000080fa00000006000108780003
:104ba00000000600e6874700889fbe008a9fbe007f
:104bb0008c9fbe008e1f780082bf9f000404780087
:104bc000029ab900f4b79f000400e00059003200d7
:104bd0000fb997000200e000570032000006be0047
:104be00004077800c800900068009000808f500093
:104bf0000400390008007800910007000000e00080
:104c00003b00350000402000180060000a00320020
:104c10008e017800a20020000c00be00fa010700ff
:104c20000005be0000807500070032008c045500ae
:104c30008904e800050037008e0478000a0020008f
:104c40000b002000010037008e047800480190001e
:104c50006800900002005000890f500003003100ee
:104c6000800478000a0020000b0020006111b800c9
:104c7000828fd2008381d200090278000c00be002e
:104c8000c4010700090757004800900009004000d0
:104c9000400498000a85750004003200080078007e
:104ca0002c0007000000e00011003a000e00e000b8
:104cb0000f0032006148b800808fd2008180d2009e
:104cc0000000780000f0a1008c01d0000001d000ad
:104cd000028641004220a80081864e004200a900c1
:104ce0004220ae004200a8000c86d300bdff370072
:104cf00000802000180060000200320008007800e8
:104d00001400070000c020001800600002003200fc
:104d1000c8019000630498007fb097000e07500010
:104d20000fb99700110009000287d80080017800b0
:104d3000010037008001eb00030078004f07780086
:104d40004f06be004f05be004f04be006f00b1000d
:104d500000000600889fbe00000478000800e00004
:104d60000f003a008004eb00090478008800d000ae
:104d7000c0e92000610078000000e000040032007b
:104d8000f4ff07000000e00001003d008084eb001c
:104d90000804e800e80f5400f4ff3a00250037004b
:104da00000002200180060008004eb0021003200a7
:104db000a80490000f00370009015100384090000e
:104dc0000000fb0089007800e7ef07000000e0002a
:104dd00007003c0028009000400498006004980000
:104de000500c98001890a0008084eb001100370050
:104df0008084440048019000828f5400eeff390007
:104e000028009000400498009800780002c020001c
:104e10000281600001003a003800900001e8a30020
:104e2000020032006004980001003700500c980026
:104e30008004eb00090078004f04be00000006006b
:104e4000889fbe008a1f780000047800c800900088
:104e5000680190000000eb00828f50003c00390098
:104e6000180078002200290002016000e20f5100c2
:104e700007003200012020000000e00001003500a2
:104e800001202400008c70000080eb00300037000f
:104e90000200260002006000820f500009003a0064
:104ea00038009000808f500006003900080078001c
:104eb000a8ff0700800078000080eb000100e00000
:104ec00023003a001805780000c0200000006500ab
:104ed00018003a00a804900060022000080040007a
:104ee000808f540013003a0000202000ef000700dc
:104ef000200498000000e00005003a002904980012
:104f0000490498008904e800390498000800370033
:104f10000a60a0000a0c78004004980001202000dc
:104f20008080400031049800400c9800500c98009c
:104f30000c000700280090005004980038009000f2
:104f40006004980000002600180c70000000eb00c0
:104f50004f0578004f04be00000006004085220087
:104f600061003700881f7800480021001804e00025
:104f700003003a00f9ff070020c0b300004c78009e
:104f80004f04780000000600889fbe0000047800ef
:104f9000080078006fff07008004780000042000fc
:104fa0001800600002003200280090005a0007003c
:104fb0000000eb0020049800384090000004e0005e
:104fc000050035000000fb005eef07000000e00078
:104fd000010032008084eb00181090000000e00017
:104fe00008003200a2ef07000000e00001003200dc
:104ff0008084eb0018109000470007000000eb00d1
:1050000010149800000820001800600015003200fd
:105010000001eb006000b800c3e920000202d000ec
:1050200063027a00880f520005003a000000400039
:1050300081804800008041000008eb000600370036
:1050400061004000e08048000201e800e80f5000e5
:10505000e08f5800f0ff3a00080078002e000700ab
:105060000e003700000c780000c0eb0030449800c0
:1050700060022000080040002004980040049800ce
:1050800050049800400c980060049800500c980060
:105090007004980076004400000c98000900780025
:1050a0004f04be0000000600881f78000004eb00db
:1050b0006140b800e2ff2f00f3ff2f00f00007006f
:1050c000a2ea2000620078000000e0000100320047
:1050d000adff07000804e800e80f5400f4ff3a00b1
:1050e0004f04780000000600010020000100e000ed
:1050f00008003200010080000100e00005003200dd
:105100008100e900010088008100d00002008000d9
:1051100000b17800000006000000e0002f0032001f
:10512000c0017800e38f51002c0036000308a30073
:105130002a003a00118080000100e00002003200e5
:10514000810f500004003100110098001080880089
:105150001600370082007800110190000200e00084
:1051600002003200800f5100faff3900110278006e
:1051700084824000850f500018003900808f520053
:1051800003003a008308420001007800070037005e
:105190000200e0000300320083014000830f510051
:1051a0000e003900120098009000980090009000c6
:1051b0000100e0000900320010014000828f500021
:1051c00006003a00020021000009eb0010017800ff
:1051d00011084100910090001100980000000600a5
:1051e000889fbe0000047800018080000100e0007c
:1051f00002003200010078000d00370011808000ad
:105200002000210004003700910f540025003600d3
:105210000180e800910090000100e000faff3a00f0
:1052200010003700920f54001e0036000280e80084
:10523000100178000200e000faff3a001101780046
:10524000118080002000210004003700910f5400dd
:10525000140036000180e80091009000828f500019
:10526000faff3a0039808000888f54000100310035
:105270008804780009007800360007000000e0008c
:1052800004003a00888f5400050032008904d100e0
:10529000f5ff3700091878009fff0700d2ff37009d
:1052a0000000eb004f04be0000000600881f7800dd
:1052b000630440000800a1008000eb00800f540050
:1052c00021003600e30f540001003e00480020009a
:1052d00008007800c2ff07008000eb000000e0003b
:1052e000190032009000780091017800648151002b
:1052f000880f51000300310011019000020878006e
:1053000007003700088140000208780091019000f2
:105310001301980010017800110914008808780022
:10532000100178000000eb000200e00004003200f1
:10533000920190000300e000010032000280e800ca
:10534000008088008180e800010078004f04780028
:1053500000000600800078000000eb000100e00083
:105360000500340001007800caee0700e10f40009c
:1053700001003a000000eb000000060000c0da0067
:105380000000060000c0da000000060000c0da00dd
:10539000000006003400f8000203be008202700024
:1053a0008502720002f0a60000f0a6008100e8006d
:1053b000a10188001500b2000800320010597800e1
:1053c0000402e9000d00320061004000fbff3900db
:1053d0003420ec0000002800f8ff37001019780096
:1053e0000482e9000500320062004000fbff390042
:1053f0003420ec0000002800f8ff37003400f900ea
:105400000601be00000006000300e00007003200b5
:10541000a5018000a101880010427800a501880044
:105420000402fb00820f5200110032008301e900e8
:10543000a5018000a101880010427800a501880024
:105440000404e00008003200000278001000b00000
:1054500000026a004260af0000f0a0000482d200a7
:105460000180b000e8ff37000000200001002000ac
:10547000000006004bf007000400be00000006001c
:10548000020ab900001bb9000200b8008100420006
:0854900081004300000006004a
:020000040000fa
:10549800667600006d6900002e7600006f6c0000d3
:1054a800745f000072650000616400005b300000fa
:1054b8005d2e00006f6600006673000065740000d2
:1054c80000000000000000000000000066760000f8
:1054d8006d6900002e7600006f6c0000745f00009c
:1054e80072650000616400005b3000005d2e000002
:1054f80067610000696e0000000000000000000005
:105508000000000000000000667600006d690000e1
:105518002e7600006f6c0000745f0000726500005a
:10552800616400005b3100005d2e00006f660000c2
:1055380066730000657400000000000000000000b1
:1055480000000000667600006d6900002e760000fd
:105558006f6c0000745f00007265000061640000f9
:105568005b3100005d2e000067610000696e00007d
:105578000000000000000000000000000000000023
:10558800667600006d6900002e7600006f6c0000e2
:10559800745f000072650000616400005b32000007
:1055a8005d2e00006f6600006673000065740000e1
:1055b8000000000000000000000000006676000007
:1055c8006d6900002e7600006f6c0000745f0000ab
:1055d80072650000616400005b3200005d2e00000f
:1055e80067610000696e0000000000000000000014
:1055f8000000000000000000667600006d690000f1
:105608002e7600006f6c0000745f00007365000068
:10561800745b0000305d00002e6f000066660000bd
:105628007365000074000000000000000000000026
:1056380000000000667600006d6900002e7600000c
:105648006f6c0000745f000073650000745b0000fd
:10565800305d00002e670000616900006e000000e8
:105668000000000000000000000000000000000032
:10567800667600006d6900002e7600006f6c0000f1
:10568800745f000073650000745b0000315d00000a
:105698002e6f00006666000073650000740000004d
:1056a8000000000000000000000000006676000016
:1056b8006d6900002e7600006f6c0000745f0000ba
