:1000000010C02BC02AC029C028C027C026C025C0C8
:1000100033C024C022C042C020C01FC01EC01DC0AB
:100020001CC011241FBECFE5D1E0DEBFCDBF10E064
:10003000A0E6B0E0EEEEF8E003C0C89531960D9270
:10004000AC36B107D1F720E0ACE6B0E001C01D92BC
:10005000A93DB207E1F754D348C4D2CF1F920F9203
:100060000FB60F9211248F938CED82BF8F910F905A
:100070000FBE0F901F9018951F920F920FB60F9200
:1000800011248F939F9380ED9FEF9DBD8CBD9F9119
:100090008F910F900FBE0F901F9018951F920F9287
:1000A0000FB60F9211248F939F93EF93FF938CB110
:1000B000803284F48091B5008823B1F0E091B500DE
:1000C000F0E0ED57FF4F108281E080937D001092A9
:1000D000B5000AC0E091B50091E09E0F9093B50085
:1000E000F0E0ED57FF4F80838091B500843111F42B
:1000F0001092B500FF91EF919F918F910F900FBEDD
:100100000F901F9018955D9BFECF8CB90895CF93EB
:10011000DF93C82FD92F8991882311F0F4DFFBCF0B
:10012000DF91CF9108958BB1881F8827881F08958C
:100130008CB10895282F98E080E027FF02C0DC9A58
:1001400001C0DC9837E03A95F1F700C0DE98880FDF
:10015000220FDE9ACB998160915079F70895CF9361
:10016000C62FDD988F73E6DF8C2FE4DFDD9ACF9109
:100170000895CF93DF93C62FD72FDD988F73DADFE3
:100180008D2FD8DF8C2FD6DFDD9ADF91CF910895A8
:100190001F93CF93DF93C42FD52F162FDD988F7326
:1001A000C9DF812FC7DF8D2FC5DF8C2FC3DFDD9A1D
:1001B000DF91CF911F910895DD988F738064BADF2E
:1001C00080E0B8DFDD9A0895CF93DD988F73806467
:1001D000B1DF80E0AFDFC82F80E0ACDFDD9A2C2FED
:1001E00030E0322F2227422F532F482B842F952F78
:1001F000CF9108950F931F93CF93DF93DD988F7363
:10020000806498DF80E096DFD82F80E093DFC82FEE
:1002100080E090DFDD9A4C2F50E060E070E0762FB8
:10022000652F542F44276D2B042F152F262F372F82
:10023000082B932F822F712F602FDF91CF911F9169
:100240000F9108951F93CF93DF93DD988F73806490
:1002500071DF80E06FDF182F80E06CDFC82F80E057
:1002600069DFD82F80E066DFDD9A4C2F50E060E038
:1002700070E0642F752F55274427712B482B972F3B
:10028000862F752F642F7D2BDF91CF911F910895BD
:100290000F931F93CF93DF93DD9881E04BDF80E8CE
:1002A00049DF80E147DFCB99FECF84E443DF80E084
:1002B00041DFD82F80E03EDFC82F80E03BDFDD9AB2
:1002C0004C2F50E060E070E0762F652F542F4427CC
:1002D0006D2B042F152F262F372F082B932F822FAE
:1002E000712F602FDF91CF911F910F910895CF93C0
:1002F000DF93C62FD72FDA981DDF8D2F1BDF8C2FB2
:1003000019DFDA9ADF91CF9108951F93CF93DF938E
:10031000CDB7DEB72A970FB6F894DEBF0FBECDBFBC
:10032000162F4AE06C2F7D2F6F5F7F4F6BD28C2F83
:100330009D2F0196ECDE112319F080E690E0E7DEB8
:100340002A960FB6F894DEBF0FBECDBFDF91CF91D6
:100350001F9108951F93CF93DF93CDB7DEB72A97F0
:100360000FB6F894DEBF0FBECDBF142F2AE04C2F7E
:100370005D2F4F5F5F4F50D28C2F9D2F0196C7DEB0
:10038000112319F080E690E0C2DE2A960FB6F894A9
:10039000DEBF0FBECDBFDF91CF911F910895929820
:1003A0009398813019F4929A93980895823011F4B9
:1003B000929803C0833011F4929A939A0895CF9340
:1003C000C82F81E0ECDFD89AD99AC09AC19AC29A14
:1003D000C39AC49AC13011F4C49816C0C23011F443
:1003E000C39812C0C33011F4C2980EC0C43011F4C7
:1003F000C1980AC0C53011F4D9980DC0C63011F4A7
:10040000D8980CC0C53028F4C098C43011F482E0EC
:1004100003C0C53019F483E0CF91C1CFCF910895C7
:10042000CF93579880917D00813049F410927D00E0
:1004300080937A0063E870E08AEB90E0DAD1579A13
:10044000C0917A00C13009F01DC162E670E087E911
:1004500090E0CFD110927A008091BA008D36A1F44D
:100460008091BB00863729F410928100AD98AC9A38
:1004700006C0893621F4C0938100AD9AAC9864E639
:1004800070E087E990E0B5D18091BA008237E1F45D
:100490008091BB00893641F48CEB90E08CD1809345
:1004A0007F00909380008BDF8091BB00863739F40A
:1004B0008CEB90E080D19093CF008093CE0064E6E7
:1004C00070E087E990E095D18091BA00843649F5D3
:1004D0008091BB00813641F48CEB90E06CD190931D
:1004E000D1008093D00019C0823669F48CEB90E083
:1004F00062D19093D3008093D20081E080937E00FC
:1005000064E670E039C0833609F079C08CEB90E086
:1005100052D19093D5008093D40081E080937E00E7
:1005200069C0813661F567E670E087E990E061D1E6
:1005300087E990E0ECDD60916E0070916F00809132
:1005400070009091710040E005DF89E690E0DFDD0A
:1005500060917200709173008091740090917500A9
:1005600040E0F8DE89E690E0D2DD8091D80060E0DE
:1005700090E0CBDE69E670E087E990E03AD18091C7
:10058000BA008736E1F561E080917F0090918000AC
:10059000BCDE61E08091CE009091CF00B6DE80910C
:1005A000810061E090E0B1DE60916E0070916F00BB
:1005B000809170009091710041E0CCDE60917200FA
:1005C00070917300809174009091750041E0C2DEDB
:1005D00061E08091D0009091D10097DE61E0809140
:1005E000D2009091D30091DE61E08091D40090918F
:1005F000D5008BDE64E670E087E990E0FAD0809168
:10060000BA008237D1F48091BB008F3641F48091DB
:10061000BC00813311F4A99A0BC0A99809C0823794
:1006200039F48091BC00813311F4AA9A01C0AA98D0
:1006300064E670E087E990E0DCD08091BA0083370F
:10064000D1F48091BB00813641F48091BC008133AC
:1006500011F4AF9A0BC0AF9809C0823639F480917B
:10066000BC00813311F4DF9A01C0DF9864E670E0CA
:1006700087E990E0BED087E990E049DD80E690E030
:10068000CF9145CDCF9108951F93CF93DF9380E015
:1006900093DD182F87FD10C084E0ACDD1170C12FF1
:1006A00020E0D22FCC0FDD1FCC0FDD1FC259DF4F52
:1006B000688379838A839B83DF91CF911F9108950B
:1006C00080917E008130A1F46091D0007091D100C2
:1006D00088E30DDE6091D2007091D30084E307DEE1
:1006E0006091D4007091D50081E301DE10927E000C
:1006F000089583B383FB882780F98093D8000895F9
:1007000087EF8ABB9FEF97BB84BB8CEF81BB88E1EF
:100710008AB9579A87E189B986EE99EF9DBD8CBD5C
:100720001FBC83E08EBD12BE85E083BF89BF789475
:10073000AD9AAC9ADD9ADA9ADE9A2FEF8FE794E0C1
:10074000215080409040E1F700C0000060E070E080
:1007500080E7CDDD60E070E08FE4C9DD2BE72A950E
:10076000F1F761E070E080E6C2DD8BE78A95F1F792
:1007700065E170E880E1FDDC65E570E881E1F9DCC8
:1007800060E073E180E2F5DC64E175E088E2F1DCD1
:100790008FEF9FE79093D1008093D0009093D30088
:1007A0008093D2009093D5008093D40039DE6CDF23
:1007B00087DF9FDFFBCFE82FF92F88279927E89461
:1007C00021912032E9F3293010F02E30C8F32B327A
:1007D00039F02D3231F4689403C02CD0820F911D72
:1007E000219120532A30C8F31EF4909581959F4F94
:1007F0000895E62FF72FA82FB92F01900D92002012
:10080000E1F70895BB274A3031F4992322F4BDE281
:10081000909581959F4F3DC0BB272A3051F4992375
:1008200042F4BDE290958095709561957F4F8F4F12
:100830009F4F0CC0682F792F880F991F880F991F21
:10084000860F971F880F991F0895BB27E42FF52F58
:10085000A62F6217710581059105330B30FB66F0F9
:10086000AA27660F771F881F991FAA1FA21710F0CB
:10087000A21B63953850A9F7A05DAA3308F0A95DC3
:10088000A19336F7B111B1931082842F952F1BC01D
:10089000BB27E62FF72F5527AA27880F991FAA1FD6
:1008A000A41710F0A41B83955051B9F7A05DAA338B
:1008B00008F0A95DA193009779F7B111B193119256
:1008C000862F972F00C0A82FB92FE82FF92F672F59
:1008D00071917723E1F7329704C07C916D93708317
:0E08E0006291AE17BF07C8F30895F894FFCFDA
:0C08EE000A003F004F4B004F4B20000061
:00000001FF
